:020000040800F2
:100000008005002001010008D3270008FF25000813
:10001000D1270008230A0008A52D000800000000D1
:10002000000000000000000000000000F7270008AA
:10003000B50A000800000000F5270008ED280008B8
:100040001B0100081B0100081B0100081B01000820
:100050001B0100081B0100081B0100081B01000810
:100060001B0100086D1000088D1000081B0100081E
:100070001B0100081B0100081B0100081B010008F0
:100080001B0100081B0100081B0100081B010008E0
:100090001B0100081B0100081B0100081B010008D0
:1000A0001B0100081B0100081B0100081B010008C0
:1000B000852900081B0100081B0100081B0100081E
:1000C0001B0100081B0100081B0100081B010008A0
:1000D0001B0100081B0100081B0100081B01000890
:1000E0001B0100081B0100081B010008DFF80CD0F1
:1000F00000F078FC004800477539000880050020B2
:100100000648804706480047FEE7FEE7FEE7FEE7B1
:10011000FEE7FEE7FEE7FEE7FEE7FEE73D29000813
:10012000ED000008202A04DB203A21FA02F0002129
:10013000704721FA02F3D040C2F1200291400843F7
:1001400019467047D2B201E000F8012B491EFBD2DC
:1001500070470022F6E710B513460A4604461946D2
:10016000FFF7F0FF204610BDF0B480EA0102D40F83
:100170004200B2EB410F02D20246084611464A0045
:1001800042D0C30DDDB2C1F3C752AD1A202D35DA0E
:10019000C1F3160141F4000204B15242C5F1200638
:1001A00002FA06F12A411044B3EBD05F23D0C4B168
:1001B000012DA0EBC35009DCF0BC4FF0004202EA75
:1001C000C352DBB200F5000000F030BB400000F18C
:1001D000807000EBC350A0F1807040EAD1704900FC
:1001E00009E0490841EAC071A0EBC35000F50000E6
:1001F000400800EBC350F0BC00F00FBB614201228D
:1002000002EB4101001BF6E7F0BC704781F00041B2
:10021000AAE780F00040A7E780EA010210B502F0EB
:100220000043400022D04A001FD0010E01EB1261B2
:10023000C0F35600C2F3560240F4000042F400023C
:10024000A0FB022000047F39140400D0401C50EAB7
:10025000124001D44000491EC2B20C0604EBD0107B
:10026000401C4008802A02D003E0002010BD20F08E
:100270000100002900DA0020184310BD30B480EAE4
:10028000010202F0004530F0004221F0004013D09E
:1002900090B1C30DD40DC2F31601C0F31600E41AD9
:1002A00041F4000140F400027D34914201D3641C0A
:1002B00000E04900002C02DA30BC002070474FF407
:1002C00000000023914201D3891A034340084FEAFA
:1002D0004101F7D151B1914202D14FF0004105E007
:1002E00002D24FF0010101E06FF0010103EBC450B5
:1002F000284430BC00F091BA420005D0C0F3C75288
:100300005242914201DC0020704700EBC15070471F
:100310002DE9FE4F804681EA0300C00F0C46009095
:1003200021F0004123F00045B8EB0200A94105D2BD
:100330004046214690461C460B46024623F00040AC
:10034000104347D0270DC7F30A00C3F30A510290A8
:10035000401A019040286BDAC3F3130040F4801B6D
:100360000098924620B10023D2EB030A63EB0B0BFB
:1003700001985946C0F14002504600F02DFA064659
:100380000D4650465946019A00F035FA10EB080028
:100390006141002487EA115284EAE7731A4340D08E
:1003A000009A62B3019A012A4FEA075215DC001B3A
:1003B00061EB02014FF0004202EA0752CDE9004230
:1003C000001C41F5801132462B4600F06CFA03B058
:1003D000BDE8F08F40462146F9E7001B61EB0201C2
:1003E000001C41F5801300185B412018A2F500178E
:1003F00047EB030140EAD570B6196D4111E06D0875
:100400004FEA360645EAC0754FEA0752001B61EB1A
:100410000201001C41F5801149084FEA3000001923
:10042000514132462B4603B0BDE8F04F00F02CBAE4
:100430000098012240000023D0EB020263EBE0733E
:10044000009821464FEAE074B8EB000061EB04012C
:10045000E9E783F000435BE781F0004158E72DE9CD
:10046000FE4F81EA030404F0004421F000410094AF
:100470004FF0000B23F0004350EA01045ED052EA33
:1004800003045BD0C3F30A54C1F30A552C44A4F20D
:10049000F3340194A0FB0254C1F3130141F4801121
:1004A000C3F3130343F4801301FB024400FB034E28
:1004B000840A970A44EA815447EA8357A4FB0768F1
:1004C00002958D0A05FB07854FEA932C04FB0C541B
:1004D0002705029D4FEA065847EA1637B5EB08058F
:1004E0006EEB070C870E920E47EA811742EA8312E1
:1004F000A7FB0201B6EB0B0164EB00042B0D43EAF2
:100500000C335E1844EB1C50DA465146E7FB0201FF
:10051000C5F313044FEA0B3343EA14534FEA043292
:10052000019C43EA0603A4F10C040294009CCDE96B
:1005300000B400F0B8F903B0BDE8F08F0020014628
:10054000F9E72DE9F04D81EA030404F0004B21F0B6
:10055000004514464FF0000A23F0004150EA05021E
:1005600020D054EA01021DD0C5F30A570246C5F354
:100570001303C1F31300C1F30A5640F4801543F48A
:100580008013A7EB0608101BD64608F2FD3873EB64
:10059000050002D308F1010801E092185B41B8F1AF
:1005A000000F03DA00200146BDE8F08D00204FF473
:1005B0008011064684460EE0171B73EB050705D332
:1005C000121B63EB050306434CEA010C49084FEA92
:1005D000300092185B4150EA0107EDD152EA030066
:1005E00012D082EA040083EA0501084305D0101BFB
:1005F000AB4106D20122002306E000224FF0004367
:1006000002E06FF0010253101AEB06004CEB0851A8
:1006100010EB0A0041EB0B01BDE8F04D00F034B9DE
:1006200070B521F0004303430CD0C1F30A550024F8
:10063000D5EB040564EB0403D617AD1AB34102DB16
:100640000020014670BD201841EB025170BDC10F62
:1006500080EAE0700844CA079623002100F0E6B85B
:100660000EB5C10F80EAE0700844CA07002140F2CD
:1006700033438DE80E000A460B4600F014F903B030
:1006800000BD00F0004220F00040C10DC0F3160094
:1006900040F400007F2901DA00207047962903DC2E
:1006A000C1F19601C84001E096398840002AF4D093
:1006B0004042704770B5C1F30A5201F00045002472
:1006C000C1F3130140F2FF3341F480119A4201DA81
:1006D000002070BD40F233439A42A2F2334203DC61
:1006E0005242FFF71FFD00E090402C43F1D0404202
:1006F00070BD00F0004230F000400AD0C10D01F59D
:100700006071C0F3160042EA0151C208400711436C
:10071000704700200146704730B5041E71F1000497
:1007200004DB4FF00044404264EB0101141E73F1FE
:10073000000405DB1C464FF00043524263EB040308
:100740008B4208BF824230BD30B5041E71F10004F7
:1007500004DB4FF00044404264EB0101141E73F1CE
:10076000000405DB1C464FF00043524263EB0403D8
:10077000994208BF904230BD01F0004330B421F0EF
:10078000004150EA010206D00A0DA2F56072C1F3E1
:100790001301002A02DC30BC00207047440F44EAF9
:1007A000C104C100E01830BC00EBC25000F035B805
:1007B000002801DBC0F10040002901DBC1F100414C
:1007C00081427047002801DBC0F10040002901DBB5
:1007D000C1F1004188427047202A04DB203A00FA28
:1007E00002F1002070479140C2F1200320FA03F388
:1007F000194390407047202A06DBCB17203A41FA74
:1008000002F043EAE07306E041FA02F3D040C2F19D
:10081000200291400843194670470029A8BF70473D
:10082000401C490008BF20F00100704710B4B0FA26
:1008300080FC00FA0CF050EA010404BF10BC7047C1
:1008400049B1CCF1200421FA04F411FA0CF118BFDB
:10085000012121430843A3EB0C01CB1D4FEA0061AA
:100860004FEA102042BF002010BC704700EBC3507D
:1008700010440029A4BF10BC7047401C490008BFA9
:1008800020F0010010BC704710B5141E73F1000475
:1008900008DA401C41F1000192185B411A4301D172
:1008A00020F0010010BD2DE9F04D92469B4611B19C
:1008B000B1FA81F202E0B0FA80F220329046FFF7FE
:1008C0008BFF04460F4640EA0A0041EA0B015346FB
:1008D0005A46084313D0114653EA010019D0C8F113
:1008E00040025046FFF71EFC05460E46504659464C
:1008F0004246FFF771FF084305D0012004E020467F
:100900003946BDE8F08D0020054346EAE0762C43E9
:1009100037430A986305E40AA0EB08000022FD0AA9
:1009200044EA47540A3002D500200146E9E70105B0
:1009300010196941DDE9084500196941BDE8F04D2C
:10094000A2E72DE9F04D00231A461B1A8A4103DB6A
:1009500000200146BDE8F08DC1F30A52C1F3130136
:1009600041F480154FF0000BD10702D100186D4102
:10097000521E0027044640F2FF11384601EB620A7E
:100980003E468046024600204FF48011FFF7CAFB26
:10099000C2197141BB1846EB0100B4EB030C75EBB7
:1009A000000C04D3E41A65EB000517460E46241923
:1009B00008F101006D4180463428E3DDF91946EB6A
:1009C0000600091BA84103D24FF0FF32134601E095
:1009D000002213461BEB070046EB0A51BDE8F04D21
:1009E000FFF752BF064C074D06E0E06840F00103F8
:1009F00094E8070098471034AC42F6D3FFF77AFB2F
:100A0000783E0008983E00080EB540F2334102914E
:100A10000021CDE900110A460B46FFF744FF03B061
:100A200000BDFEE72DE9F047214C82468946E06A89
:100A3000FFF75FFE02F050FF06460F46494650465C
:100A4000FFF792FBFFF755FE8846054632463B46C8
:100A5000FFF705FD4FF0FF363246FFF7E1FDFFF7E8
:100A60008BFE216AFFF780FB2062E06AFFF741FE00
:100A700003F040F82A464346FFF7F1FC3246FFF701
:100A8000CFFDFFF779FE616AFFF76EFB60624946B2
:100A90005046FFF7BBFBE16BFFF7F0FBA16AFFF7E6
:100AA00063FBA06200206060A060BDE8F0870000EA
:100AB00000000020704700002DE9F04F17461E4649
:100AC00095B005460C46AB4BDFF8ACA20022FFF711
:100AD0003BFE02D20020A74901E0284621460446F9
:100AE000884600225346FFF717FE02D20024A24D8B
:100AF00000E0454600229F4B38463146FFF724FE72
:100B000002D200209B4901E03846314607460E4696
:100B100000225346FFF700FE02D20020964901E072
:100B20003846314606460020CDE904000F46944978
:100B30009248CDE9020190490020DFF848A2CDE9B2
:100B400000018E4A53462046294602F083FF8B4619
:100B500081468D498948CDE904010020CDE9020094
:100B6000CDE90000854A864B2046294602F072FFF7
:100B7000CDE9080185498148CDE904017D4900207E
:100B8000CDE9020180497D48CDE9000100221346EC
:100B90002046294602F05EFFCDE90A010020CDE99A
:100BA00004007549754ACDE90201CDE900015346BB
:100BB0003046394602F04EFF824600200D466D4910
:100BC000CDE90200CDE90401CDE9000002466A4BFF
:100BD0003046394602F03EFF884604466B49674876
:100BE000CDE90401002063490246CDE90201CDE9C7
:100BF000000103463046394602F02CFF06460F46F8
:100C000052462B4648465946FFF729FC059100906D
:100C10002246434648465946FFF721FC0191109071
:100C200032463B4648465946FFF719FCCDE91201CA
:100C3000DDE9080152462B46FFF711FC11910290A5
:100C4000DDE9080122464346FFF709FCCDE906012C
:100C5000DDE9080132463B46FFF701FC81468B4641
:100C6000DDE90A0152462B46FFF7F9FB05468A46A5
:100C7000DDE90A0122464346FFF7F1FB04468846B8
:100C8000DDE90A0132463B46FFF7E9FB06460F461F
:100C9000224643464846594602F0CCFE8346099117
:100CA000DDE912012A46534602F0C4FE81460B914B
:100CB000DDE90601119B029A02F0BCFE02460B46DA
:100CC0000199109802F0B6FE824607915A463046C6
:100CD0003946DDF81480009C099BFFF719FB4A4652
:100CE0000B9BFFF715FB5246079BFFF711FB2246B4
:100CF0004346FFF70DFB0091029022464346002039
:100D00001C49FFF7ACFB0C90019152461B4820494F
:100D1000079BFFF7A4FB80460D4600204A4601468C
:100D20000B9BFFF79CFB0C460A905A461348194947
:100D3000099BFFF794FB81468A4632463B460020DA
:100D40000D49FFF78CFB4A465346FFF7E1FA23466D
:100D50000A9AFFF7DDFA42462B46FFF7D9FA019BC4
:100D60000C9AFFF7D5FA009B029A15B0BDE8F04F38
:100D7000FFF7E7BB0000F03F0000F0BF9A99999998
:100D80009999B9BF9999F1BF9999B93F9999F13F4B
:100D90009999E93F9999D9BF2DE9F04F14461F461B
:100DA00097B005460E46A84BDFF8A0A20022FFF739
:100DB000CBFC01D2A44E00250022534628463146E2
:100DC000FFF7AAFC01D2A14E0025B04600229E4B9F
:100DD00020463946FFF7B8FC02D200209A4901E0CC
:100DE0002046394606460C4600225346FFF794FC3F
:100DF00002D20020954901E03046214604460020F9
:100E0000CDE904000E4693499148CDE902018F498E
:100E10000020DFF84492CDE900018D4A4B46284678
:100E2000414602F017FECDE906018C498848CDE91C
:100E300004010020CDE90200CDE90000844A854B81
:100E40002846414602F006FECDE908018449804863
:100E5000CDE904017C490020CDE902017F497C48AD
:100E6000CDE90001002213462846414602F0F2FD7A
:100E7000CDE90A010020CDE904007449744ACDE9A6
:100E80000201CDE900014B462046314602F0E2FD69
:100E9000834600208A466C49CDE90200CDE9040171
:100EA000CDE900000246694B2046314602F0D2FDF2
:100EB0000F4605466A496648CDE9040100206249AB
:100EC0000246CDE90201CDE9000103462046314644
:100ED00002F0C0FD81468846DDE906015A465346C8
:100EE000FFF7BDFA04460E46DDE906012A463B46F9
:100EF000FFF7B5FACDE90310DDE906014A4643469E
:100F0000FFF7ADFA01911290DDE908015A46534608
:100F1000FFF7A5FACDE91310DDE908012A463B46A3
:100F2000FFF79DFACDE90510DDE908014A46434681
:100F3000FFF795FACDE90710DDE90A015A46534655
:100F4000FFF78DFA8A461690DDE90A012A463B46EC
:100F5000FFF785FA83460991DDE90A014A464346CF
:100F6000FFF77DFA05460F46DDE90310DDE9133290
:100F700002F060FD009104905346169A0199129870
:100F800002F058FDDDE9053281468A465846099946
:100F900002F050FD02460B46DDE9071002F04AFD63
:100FA0008B46069020463146009B049AFFF7B0F925
:100FB0004A465346FFF7ACF95B46069AFFF7A8F995
:100FC0002A463B46FFF7A4F901910A902A463B4680
:100FD00000201D49FFF743FACDE907105B461C4886
:100FE0002049069AFFF73BFA80460F4600204A4602
:100FF00053460146FFF733FA83460D4614481A4913
:10100000009B049AFFF72BFA81468A462246334614
:1010100000200E49FFF723FA4A465346FFF778F9B6
:101020005A462B46FFF774F942463B46FFF770F9E4
:10103000DDE90732FFF76CF9019B0A9A17B0BDE8AA
:10104000F04FFFF77EBA00000000F03F0000F0BF55
:101050009A9999999999B9BF9999F1BF9999B93F75
:101060009999F13F9999E93F9999D9BF0548016844
:10107000491C016004480168491C0160082000F017
:101080000DBB00000400002094000020054801680A
:10109000491C016004480168491C0160102000F0EF
:1010A000FDBA0000080000209800002010B5FFF7EE
:1010B000CEFA0121FFF720F90549FFF7ADF8054900
:1010C000FFF7AAF8BDE810400349FFF7D7B80000C2
:1010D000C3F548400000E04000E6AA4870B5154658
:1010E0000A46044619461046FFF790F80146FFF7F6
:1010F00093F8064629462046FFF788F80146FFF791
:101100008BF83146FFF730F8FFF7F3FA02F042FDB3
:10111000BDE87040FFF730BB2DE9FC5F504C0D4639
:1011200061698846FFF778F88146A0692946054637
:10113000FFF772F8074601462846FFF76DF8FFF7FC
:10114000D8FA05460E4649464046FFF765F8FFF7D0
:10115000D0FA2A463346FFF71FFE80468B463946B3
:10116000A069FFF759F8FFF7C4FA05460E4649464D
:101170006069FFF751F8FFF7BCFA2A463346FFF7DC
:101180009BFC81468A46A06BFFF7B3FA06460191A5
:101190000D46E069FFF7ADFA074642465B4600910F
:1011A000FFF75DF92B463246FFF759F905468846A9
:1011B0002069FFF79EFA2A464346FFF7A9F8FFF792
:1011C000DBFA2061DDE90018054638464A465346F9
:1011D000FFF745F943463246FFF741F906460F4609
:1011E000E068FFF786FA32463B46FFF791F8FFF7D3
:1011F000C3FA1C49E060884200DD08461A4AE060F4
:10120000904200D30020E0608D4200DD0D46256154
:10121000954200D300252561D4E90801D4E91523BE
:10122000FFF75CFFA064216CFFF7C2FA01D801252B
:1012300000E00025E068FFF724FA02462B4604216F
:101240000A4801F019FB2069FFF71BFA02B02B4690
:10125000BDE8F05F02460821044801F00DBB000024
:10126000000000200000C84200008080F000002044
:101270002DE9FC5F0E461D4611460C9CFEF7C6FF8D
:10128000019029463046FEF7C1FF06462046FFF78B
:1012900030FA8B46044602F01FFB05460F463046E7
:1012A000FFF727FA06462A463B460091FFF7D7F894
:1012B000074688462046594602F01CFC81468A466D
:1012C0000198FFF716FA05464A4653460191FFF783
:1012D000C6F83A464346FFF7BCF8FFF74DFA074613
:1012E0002046594602F006FC02460B46304600995D
:1012F000FFF7B5F8064688462046594602F0ECFA54
:1013000002460B4628460199FFF7A9F832464346A4
:10131000FEF7FEFFFFF730FADFF8BC80DFF8BC9085
:101320000546B7F5000F1ADB0D98FFF7E2F94246C4
:101330004B46FFF791F802F053FC06460C46284650
:10134000FFF7D7F932462346FFF783F8002213460A
:10135000FFF7E2F903D2BDE8FC5F01F0B7BA17F17D
:10136000FF4F1AD30D98FFF7C4F942464B46FFF7DB
:1013700073F802F035FC06460C462846FFF7B9F92B
:1013800032462346FEF7C4FF00221346FFF7C4F996
:1013900003D2BDE8FC5F01F089BA114CD4E9090120
:1013A000CDE90001D4E915120E48236A00F031F8A6
:1013B000FFF7E2F9A16A00F025F8FFF7DDF9014631
:1013C0006063206B00F010F8FFF7D6F90146606B00
:1013D000BDE8FC5FFFF7A0BE1F85EB51B81EF93FCB
:1013E000000000209A99193F10B5FEF712FF04493A
:1013F000896BFEF743FFBDE81040FFF77AB90000A4
:101400000000002010B5FEF701FFBDE81040FFF717
:1014100070B92DE9FF4F8DB00E4682460024254657
:1014200030461099FFF7C4F97DD030461099FEF789
:10143000EDFE04461A990F98FEF7E8FE2146FEF7E6
:101440001DFF8346DDE90F01FEF7E6FE0546314646
:101450001A98FEF7E1FE2946FEF7D8FE2146FEF770
:101460000DFF594600900846FEF7D6FE4FF07E511C
:10147000FEF77AFE059001215846FEF73DFF04462F
:101480001A99FEF7C9FE054620460099FEF7C4FEEC
:1014900004464FF040411098FEF7BEFE2146FEF78D
:1014A00063FE2946FEF7B2FE044651460846FEF7A3
:1014B000B3FE05461A990098FEF7A8FE0146FEF70E
:1014C000ABFE109907460846FEF7A6FE3946FEF722
:1014D0004BFE2946FEF79AFE804630461099FFF7EC
:1014E00067F905984FF0010126D2FEF705FFFFF7D7
:1014F00000F905460F4602210598FEF7FDFE41461C
:10150000FEF78AFE804621460846FEF785FE4146E4
:10151000FEF77CFEFFF7EDF802F03CFB80468946C3
:1015200084F0004000E039E0FFF7E3F842464B4624
:10153000FEF78FFF2A4623E0FEF7DEFEFFF7D9F81D
:1015400081460F4602210598FEF7D6FE4146FEF77A
:1015500063FE054621460846FEF75EFE2946FEF775
:1015600055FEFFF7C6F802F015FB0546884684F0E5
:101570000040FFF7BEF82A464346FEF7C9FE4A463A
:101580003B46FEF7DEFFFFF7F7F8044601465846F4
:10159000FEF742FE0099FEF7E7FD0546304610993A
:1015A000FFF706F915D11A990F98FFF701F905D23F
:1015B000344651461A98FEF729FE09E01A990F9809
:1015C000FFF700F905D2344651461A98FEF7CCFDD4
:1015D000054620461099FEF719FE0A9028461A99EA
:1015E000FEF714FE05461B98FFF783F88B4604466A
:1015F00002F072F906460F462846FFF77AF80546CC
:1016000032463B460691FEF72AFF82468846204630
:10161000594602F06FFA074689460A98FFF769F8BB
:1016200006463A464B460391FEF719FF524643469B
:10163000FEF70FFFFFF7A0F880462046594602F05C
:1016400059FA02460B4628460699FEF708FF05465A
:101650000F462046594602F03FF902460B463046F7
:101660000399FEF7FCFE2A463B46FEF751FEFFF7C4
:1016700083F801464046FEF701FEFFF73AF802F014
:101680001BF8FFF779F801461B98FEF7BFFD11B074
:10169000BDE8F04FFFF72DB870470000044910B5C2
:1016A0000A68024202D00860FFF7F6FF10BD000092
:1016B000140401402DE9F84FDFF890A100220AF14F
:1016C000040B144601274FF00F090BF1040E00BF65
:1016D0000B6807FA04F52B40AB4274D1DFF870C1F8
:1016E0004E68A6EB0C0866452BD00DDC032E34D0DB
:1016F00005DC36B3012E19D0022E2FD11BE0112E9E
:1017000016D0122E2AD119E0B8F5881F19D006DCA0
:10171000B8F5803F15D0B8F5801F1FD111E0B8F59E
:10172000001F0ED0B8F5041F18D10AE0CA6815E0F2
:10173000CA68121D12E0CA6808320FE0CA680C328B
:101740000CE08A682AB1012A4FF0080203D04561F3
:1017500004E0042202E0056100E00022FF2B01D832
:10176000064601E000F104064FEA840501D9A5F11F
:101770002005D6F800C009FA05F82CEA080C02FA90
:1017800005F54CEA050CC6F800C04D68ED0057D5CC
:10179000304DAE6946F00106AE61AD6924F0030636
:1017A00005F0010500952C4D06EB050CDCF8085002
:1017B000A6074FEA167809FA08F6B543274EB04255
:1017C00002D1002610E03BE0254EB04201D10126B7
:1017D0000AE0244EB04201D1022605E0224EB0427A
:1017E00001D1032600E0042606FA08F62E43CCF8C1
:1017F00008604D68DAF80060ED03554601D51E43D8
:1018000000E09E432E604D68DBF80060AD035D464E
:1018100001D51E4300E09E432E604D68DEF8006057
:10182000ED02754601D51E4300E09E432E604D68D3
:10183000AD020E4D2E6801D51E4300E09E432E6082
:10184000641C102CFFF444AFBDE8F88F0004014085
:10185000000011100010024000000140000801408B
:10186000000C014000100140001401400C04014034
:101870000AB1016170470904FBE700000148806874
:10188000704700009C0000200248816802781144E3
:10189000816070479C000020074810B5016841F046
:1018A00010010160032000F073F8002000F006F83A
:1018B00000F024F8002010BD0020024070B50D4D4E
:1018C00004464FF47A712878B1FBF0F00A490968B0
:1018D000B1FBF0F000F0FCFA48B9102C07D200225E
:1018E0002146501E00F034F800206C6070BD0120CD
:1018F00070BD00009C000020A80000200C4808B526
:10190000816941F001018161816901F0010100916A
:10191000C16941F08051C161C06900F08050009000
:101920000448416821F0E06141F00071416008BD68
:10193000001002400000014000F01F020121914010
:101940004009800000F1E020C0F80011704700005D
:10195000F0B40E4B1B680C46C3F30223C3F107051A
:10196000042D00D90425191D072901D2002300E008
:10197000DB1E012606FA05F1491E214099409E40D2
:10198000761E16403143F0BC00F024BF0CED00E0A1
:10199000064900F0070208684FF6FF03184040EAC6
:1019A0000220034A10430860704700000CED00E07D
:1019B0000000FA052DE9F047DFF8548105460E4690
:1019C000D8F8000000F00700B0420CD2D8F80010A0
:1019D00021F007013143C8F80010D8F8000000F0EA
:1019E0000700B0426FD128684A4C810712D54007E2
:1019F00003D5606840F4E06060602878000703D594
:101A0000606840F4605060606068A96820F0F00091
:101A1000084360602878C00744D06868012816D061
:101A20002168022816D0890700294CDA616821F064
:101A3000030101436160FFF721FF6968074641F236
:101A4000883001290ED00229814618D026E021686D
:101A50008903E9E78901E7E7FFF710FFC11B494563
:101A600001D918E081466068C0F381000128F3D1F4
:101A700018E000BFFFF702FFC11B49450BD86068A3
:101A8000C0F381000228F5D10CE000BFFFF7F6FE9D
:101A9000C11B494502D90320BDE8F087606810F0FA
:101AA0000C0FF3D1D8F80010404601F00701B14205
:101AB0000BD9016821F0070131430160006800F093
:101AC0000700B04201D00120E6E72878400705D59D
:101AD0006068E96820F4E0600843606028780007E7
:101AE00006D56068296920F4605040EAC100606052
:101AF00000F036F86168084AC1F30311515CC84030
:101B0000064908600020FFF7D9FE0020C4E7000066
:101B10000020024000100240443C0008A8000020C1
:101B20000448054900684968044AC1F30221515C30
:101B3000C8407047A800002000100240543C000834
:101B40000448054900684968044AC1F3C221515C50
:101B5000C8407047A800002000100240543C000814
:101B600012A185B00FC98DE80F0014A0144A0068B7
:101B700004905168134801F00C03042B10D0082B7B
:101B80000ED1C1F38343C9031DF803000AD5516880
:101B900004AAC1F34041515C0A4A5043B0FBF1F042
:101BA00005B0704708494843FAE7000002030405FE
:101BB000060708090A0B0C0D0E0F10100102000099
:101BC0000010024000127A0000093D002DE9F84F94
:101BD00004460078B94DC00748D06868C0F381005A
:101BE000012807D06868C0F38100022809D168681D
:101BF000C00306D52868800338D5606800286FD0F8
:101C000034E06068B0F5803F0BD010B1B0F5A02F84
:101C100011D0286820F480302860286820F48020C3
:101C200002E0286840F480302860606888B1FFF7DF
:101C300025FE064609E0286840F480202860F0E789
:101C4000FFF71CFE801B642875D828688003F7D531
:101C50000CE0FFF713FE064605E000BFFFF70EFE9F
:101C6000801B6428F0D828688003F7D42078944E2D
:101C700080074FF001094FF000083BD5686810F06D
:101C80000C0F07D06868C0F38100022809D168688A
:101C9000C00306D42868800714D5206901281FD105
:101CA00010E02069B0B1C6F80090FFF7E7FD0746E5
:101CB00005E000BFFFF7E2FDC01B0228C4D828687A
:101CC0008007F7D52868616920F0F80040EAC10074
:101CD00028600FE0C6F80080FFF7D0FD074606E059
:101CE000E9E000BFFFF7CAFDC01B022823D828681F
:101CF0008007F7D4207800072CD57248A169D9B1A4
:101D0000C0F80090FFF7BAFD074604E0FFF7B6FD04
:101D1000C01B02280FD8686A8007F7D56A484FF4BD
:101D2000FA510068B0FBF1F0009000BF0098411E2E
:101D30000091FAD20EE080E0C0F80080FFF79EFD2F
:101D4000074604E0FFF79AFDC01B022875D8686AB1
:101D50008007F7D42078400760D5E8690027C000E5
:101D600008D4E86940F08050E861E869012700F094
:101D70008050009055480168C90513D40168834616
:101D800041F480710160FFF779FD824606E000BFF3
:101D9000FFF774FDA0EB0A0064284ED8DBF80000C2
:101DA000C005F5D5E06801280AD008B1052813D090
:101DB000286A20F001002862286A20F0040002E06E
:101DC000286A40F001002862E06841F2883B98B13F
:101DD000FFF754FD82460BE0286A40F004002862B9
:101DE000EEE700BFFFF74AFDA0EB0A0159455AD8BC
:101DF000286A8007F6D50CE0FFF740FD824605E033
:101E0000FFF73CFDA0EB0A0159454CD8286A800732
:101E1000F6D41FB1E86920F08050E861E06988B32A
:101E20006968C1F38101022945D00228C6F86080A3
:101E300004D0FFF723FD044638E034E0FFF71EFD31
:101E4000074604E0FFF71AFDC01B02282BD82868BC
:101E50008001F7D4206AB0F5803F05D16868A16899
:101E600020F4003008436860D4E908010843696839
:101E700021F4741108436860C6F86090FFF7FEFC17
:101E8000044606E015E000BFFFF7F8FC001B02283F
:101E900009D828688001F7D50BE000BFFFF7EEFCFA
:101EA000001B022802D90320BDE8F88F28688001B2
:101EB000F4D40020F8E70120F6E70000001002400B
:101EC0000000424280044242A8000020007000400E
:101ED00010B5401EB0F1807F01D3012010BD4FF03E
:101EE000E02460610F21601700F074FC0020A06105
:101EF00007202061002010BD7047704730B590F872
:101F00003C20012A20D0012280F83C20022380F8C6
:101F10003D3003685C6824F070045C6003685C68B2
:101F20000D682C435C6003689C6824F080049C600E
:101F300003689C6849680C439C6080F83D20002140
:101F400080F83C10084630BD022030BD10B50400BA
:101F500003D094F83D0010B107E0012010BD00202F
:101F600084F83C00204600F00DF8022084F83D0083
:101F7000211D206800F00CFD012084F83D000020A8
:101F800010BD000008B501681048B1F1804F0BD0BA
:101F90000F4A914207D1C16941F00401C161C06992
:101FA00000F00400009008BDC16941F00101C16169
:101FB000C069002200F00100009011461C20FFF7CC
:101FC000C7FCBDE808401C20FFF7B6BC001002406B
:101FD000000800400168CA6842F00102CA60006857
:101FE000016841F0010101600020704770B50446AE
:101FF00090F83C00012817D0012584F83C500220BD
:1020000084F83D002068826822F0770222F47F4243
:1020100082600868502837D00DDC202859D005DCB4
:1020200088B3102841D151E0022070BD302853D030
:1020300040283AD13FE060282ED070280BD0B0F570
:10204000805F03D0B0F5005F2FD110E02068816879
:1020500021F0070115E0CB68D1E90121206800F0EB
:10206000D8FC2168886840F0770088601DE0CB6864
:10207000D1E90121206800F0CCFC2068816841F49E
:102080008041816011E01EE0CA684968206800F064
:1020900075FD5021206806E0CA684968206800F094
:1020A0007EFD6021206800F0BEFC84F83D500020D9
:1020B00084F83C0070BDCA684968206800F05EFD85
:1020C00040212068EFE700212068ECE7102120681C
:1020D000E9E720212068E6E730212068E3E7704740
:1020E00070B50446006801694FF00005C9438907CF
:1020F00015D4C168C943890711D4E91E01610120C3
:102100002077206880698007204602D0FFF7E7FF2C
:1021100004E000F0C1F8204600F043F9257720687C
:102120000169C943490717D4C168C943490713D492
:102130006FF004010161022020772068806910F4AB
:10214000407F204602D0FFF7CAFF04E000F0A4F869
:10215000204600F026F9257720680169C943090760
:1021600016D4C168C943090712D46FF00801016190
:10217000042020772068C0698007204602D0FFF73E
:10218000AEFF04E000F088F8204600F00AF9257759
:1021900020680169C943C90617D4C168C943C90683
:1021A00013D46FF010010161082020772068C06906
:1021B00010F4407F204602D0FFF791FF04E000F0CA
:1021C0006BF8204600F0EDF8257720680169C943D7
:1021D000C90708D1C168C943C90704D1891E016173
:1021E000204600F0F7F820680169C943090609D4C0
:1021F000C168C943090605D46FF08001016120461A
:10220000FFF77AFE20680169C943490609D4C1680D
:10221000C943490605D46FF040010161204600F032
:1022200027F920680169C94389060BD4C168C943ED
:10223000890607D46FF0200101612046BDE8704097
:10224000FFF75BBE70BD000000B585B000210091B6
:1022500001910291039100680C49884213D10C4806
:10226000816941F0080181618069694600F00800D8
:1022700004904FF4C070009002200190032003905E
:102280000448FFF717FA05B000BD00000008004041
:1022900000100240000C0140704770B5044690F8F1
:1022A0003C000D4601280DD0012684F83C60022038
:1022B00084F83D0042B1042A18D0082A2AD00C2AFA
:1022C0004DD139E0022070BD206800F0B5FB2068D8
:1022D000816941F0080181612068816921F0040170
:1022E0008161206881692A69114311E0206800F04A
:1022F000CBFB2068816941F40061816120688169BC
:1023000021F480618161206881692A6941EA0221A2
:10231000816124E0206800F0E3FB2068C16941F09E
:102320000801C1612068C16921F00401C161206810
:10233000C1692A69114311E0206800F0FDFB2068A3
:10234000C16941F40061C1612068C16921F4806103
:10235000C1612068C1692A6941EA0221C16184F82A
:102360003D60002084F83C0070BD10B5040003D02F
:1023700094F83D0010B107E0012010BD002084F862
:102380003C00204600F00CF8022084F83D00211D9E
:10239000206800F0FDFA012084F83D00002010BD07
:1023A0007047704710B504460068012200F026FB14
:1023B00007492068884203D1416C41F400414164DF
:1023C0002068016841F001010160002010BD00009B
:1023D000002C01407CB523490068234C09688842E1
:1023E0003ED12078401C2070A068FEF75FFE0546B5
:1023F0006068FEF75BFE01462846FEF713FB00F01F
:10240000FBF9A16A606B00F0C7FCD4E90801D4E9CC
:102410001523FEF763FEA064216CFEF7C9F915D2FF
:10242000606C401C6064062805DC0F4901F15C010A
:1024300051F8201000E0216A616505DC0A4901F1CC
:10244000780151F8200000E0606AA0650749A06AA1
:10245000CDE90001D4E91501D4E90823FEF708FF0E
:102460007CBD0000B000002000000020C3F5483F04
:10247000704770B5040004D094F83900002510B1FD
:1024800006E0012070BD84F83850204600F022F8A4
:10249000242084F839002068C16821F40051C1600B
:1024A000204600F08FFB2068016921F49041016112
:1024B0002068416921F02A0141612068C16841F426
:1024C0000051C160E563202084F8390084F83A00A7
:1024D000002070BD30B585B00024009401940294B2
:1024E000039400681449884223D11448C16941F417
:1024F0000031C161C16901F400310491816941F089
:102500000401816180690E4D00F0040004900420F4
:102510000090022001900320039069462846FFF7AF
:10252000C9F80820CDE90004694628460294FFF75F
:10253000C1F805B030BD000000440040001002406A
:10254000000801402DE9F843044690F839001F4681
:1025500016460D46202850D1A5B19EB194F83800FA
:1025600001284AD0012084F838004FF00008C4F850
:102570003C80212084F83900FFF780F9A684814649
:10258000E68426E00120BDE8F883E08C401EE0846C
:10259000A0684B46B0F5805F4FF000024FF080011D
:1025A0002046009703D000F0C5FBE8B90DE000F02D
:1025B000C1FBC8B928882168C0F3080048602069B9
:1025C00008B16D1C05E0AD1C03E0216815F8010B96
:1025D0004860E08C0028D8D14B460022402120469C
:1025E000009700F0A7FB08B10320CCE7202084F877
:1025F000390084F838800020C5E70220C3E7FEE7F1
:102600002DE9F04786B000243648009401940294E6
:102610000394816941F010018161816901F0100129
:102620000491816941F004018161816901F0040133
:102630000491816941F0080181618069DFF8A88017
:1026400000F008004FF4C04504900022294640469F
:10265000FFF70EF9DFF89490002210214846FFF7AB
:1026600007F9DFF88CA04FF4C447002239465046E2
:10267000FFF7FEF80095022601250396CDE90154E7
:1026800069464046FFF716F81020CDE90005CDE970
:10269000024669464846FFF70DF800970396CDE9D4
:1026A000015469465046FFF705F81820009011487C
:1026B000CDE9010469465046FEF7FCFF00221146B1
:1026C0000920FFF745F90920FFF736F900221146E6
:1026D0000A20FFF73DF90A20FFF72EF906B0BDE802
:1026E000F087000000100240001001400008014087
:1026F000000C01400000111010B586B000241248F3
:10270000009401940294039404944FF08041059442
:10271000016041F6FF01C0E9011440F2E731C0E970
:1027200003148461FFF712FC4FF480500090694657
:102730000548FFF75BFC049404A903480594FFF7E0
:10274000DDFB06B010BD0000B000002010B58EB05B
:1027500000240794089409940A940B941C21684659
:102760000C94FDF7F6FC1948174901601421C0E9E3
:10277000011440F28F11C0E903148461FFF7E6FBF6
:102780004FF48050079007A91048FFF72FFC0F481F
:10279000FFF7EBFD0B940BA90C480C94FFF7AEFB75
:1027A0006020CDE90004029404226946074804949D
:1027B000FFF773FD082269460448FFF76EFD0348E2
:1027C000FFF742FD0EB010BD00080040F0000020F1
:1027D000FEE770470907090E002806DA00F00F002F
:1027E00000F1E02080F8141D704700F1E02080F82F
:1027F0000014704770477047124A1349106AD0643A
:1028000002F14C0003780B7043784B7083788B7027
:10281000C078C870506A106502F150004FF4FA5346
:1028200002780A7142784A7182788A71C078C871D8
:102830000D2008720A2048720246A1F14000FFF7FD
:1028400081BE00000000002070010020642A01DD2C
:10285000642202E0002A00DA0022064B5B88534320
:10286000642293FBF2F2036821F0030034301A5023
:10287000704700000000002010B5642A01DD6422CA
:1028800002E0002A00DA0022074CC3F10103648849
:102890005443642294FBF2F25343026821F0030094
:1028A0003430135010BD00000000002000B5142289
:1028B00004210548FFF7CAFF3222082102485DF8CB
:1028C00004EBFFF7C3BF0000F000002000B5322288
:1028D00004210548FFF7BAFF1422082102485DF8D9
:1028E00004EBFFF7B3BF0000F0000020FEF7CCBF01
:1028F00030B58FB028216846FDF72BFC14210AA8BB
:10290000FDF727FC0224012004900094102005907C
:1029100000254FF46010CDE9085007946846FFF792
:1029200055F90AA90F2081E831006002CDE90D05B3
:1029300002210AA8FFF73EF80FB030BD0D4801682C
:1029400041F00101016041680B4A1140416001689A
:102950000A4A11400160016821F480210160416848
:1029600021F4FE0141604FF41F0181600449C0035E
:1029700008607047001002400000FFF8FFFFF6FEFD
:1029800008ED00E00148FFF7ABBB0000B0000020FD
:10299000F0B50268164B174C174D4FF08047984220
:1029A00005D0B84203D0A04201D0A84203D122F002
:1029B00070064A683243984205D0B84203D0A0421C
:1029C00001D0A84203D122F44074CA68224322F005
:1029D00080044A69224302608A68C2620A6882628D
:1029E000984201D10969016301214161F0BD0000F4
:1029F000002C0140000400400008004010B50123F5
:102A0000046A8B409C430462036A8A401343036256
:102A100010BD10B5846842EA032224F47F440A43BF
:102A20002243826010BD826822F070020A4342F0A5
:102A3000070181607047000030B5026A22F0010290
:102A40000262026A4368846924F073050C682C43AF
:102A500022F002058A682A430A4DA8420BD122F0CF
:102A60000805CA6823F440732A434D6922F0040222
:102A70001D438B692B434360846149684163026253
:102A800030BD0000002C014030B5026A22F0100277
:102A90000262026A436884690D6824F4E64444EAE9
:102AA00005248D6822F0200242EA05120B4DA8424F
:102AB0000ED1CD6822F0800242EA05124D6923F45E
:102AC000406343EA85038D6922F0400243EA8503AF
:102AD0004360846149688163026230BD002C01401B
:102AE00030B5026A22F480720262036A4268C469E5
:102AF00023F4007324F073050C682C438D6843EABB
:102B000005230C4DA8420ED1CD6823F4006343EA9F
:102B100005234D6922F4405242EA05128D6923F4DF
:102B2000806342EA05124260C4614968C16303627E
:102B300030BD0000002C014030B5026A22F4805202
:102B40000262046A4268C3690D6823F4E64343EAFB
:102B500005238D6824F4005444EA0534064DA84248
:102B600004D14D6922F4804242EA85124260C36179
:102B700049680164046230BD002C014010B5036A4D
:102B8000046A24F001040462846924F0F00444EA35
:102B9000021423F00A020A438461026210BD10B5D8
:102BA000036A23F0100303628369046A23F4704309
:102BB00043EA023224F0A00343EA01118261016278
:102BC00010BD00002DE9F041044600680169E2688B
:102BD00021F44051114301612169A06808436169F2
:102BE00008432168CA6841F20C639A430243CA60F1
:102BF00020684169A26921F44071114341614C4947
:102C000020686425322688423CD1FEF799FF00EB0C
:102C1000C00101EB001061688900B0FBF1F7FEF71D
:102C20008FFF00EBC00101EB00106168B046890026
:102C3000B0FBF1F0B0FBF5F06FF01801484307EB83
:102C4000800106EB0110B0FBF5F000F0F006FEF796
:102C500077FF00EBC00101EB001061688900B0FB59
:102C6000F1F0B0FBF5F006EB0016FEF769FF00EBA4
:102C7000C00101EB001061688900B0FBF1F7FEF7BD
:102C80005FFF3BE0FEF74CFF00EBC00101EB0010E3
:102C900061688900B0FBF1F7FEF742FF00EBC0016D
:102CA00001EB00106168B0468900B0FBF1F0B0FBA9
:102CB000F5F06FF01801484307EB800106EB0110B7
:102CC000B0FBF5F000F0F006FEF72AFF00EBC001C4
:102CD00001EB001061688900B0FBF1F0B0FBF5F08A
:102CE00006EB0016FEF71CFF00EBC00101EB001025
:102CF00061688900B0FBF1F7FEF712FF00EBC0013D
:102D000001EB001061688900B0FBF1F0B0FBF5F059
:102D10006FF01801484307EB800108EB0110B0FB8E
:102D2000F5F0216800F00F0030448860BDE8F081C4
:102D3000003801402DE9F041984617460E460446FA
:102D4000069D1DE0681C1BD02DB1FEF797FDA0EB82
:102D50000800A84214D92068C16821F4D071C1606C
:102D60002068416921F001014161202084F8390087
:102D700084F83A00002084F838000320BDE8F08190
:102D80002068006836EA000004D00020B842D9D09C
:102D90000020F3E70120F9E7014AC2E90B10704770
:102DA00000000020FEE7490050EAC12018BF0420BF
:102DB0004A0D18BF40F0010040F2FF72B2EB515FC4
:102DC00008BF40F00200012808BF0520704700003E
:102DD0002DE9F74F144694B00021C4E9021115996A
:102DE000079121F00045C9498D4206DC1599C4E9D7
:102DF000000117B00020BDE8F08FC549DFF814A32B
:102E0000A9423CDD0799C44E0029C44FC44A159914
:102E1000534619DDFDF71DFB554506D0C14AC24B8F
:102E2000FDF717FBC4E900010AE04FF0D352BE4B97
:102E3000FDF70FFB32463B46FDF70BFBC4E90001F3
:102E400017B00120BDE8F08FFDF762FA554506D0B6
:102E5000B44AB54BFDF75CFAC4E900010AE04FF053
:102E6000D352B14BFDF754FA32463B46FDF750FAC8
:102E7000C4E9000117B04FF0FF30BDE8F08FAB4957
:102E8000A942159978DB21F0004183468846A84A7B
:102E9000A84BFDF7E4FA0022A74BFDF739FAFDF73E
:102EA00009FC0990FDF7DCFB06460F469C4A534699
:102EB000FDF7D5FA43465A46FDF7CEFA80468A46D4
:102EC000984A994B30463946FDF7C9FA2A0D012533
:102ED0000B9242465346FDF7BFFA032DC4E90001A9
:102EE00039D00B98C1F30A51401A05EB451111393D
:102EF000814230DA9148C346784400EB0510CDF8A2
:102F00000CA00C90D0E9002330463946FDF7A7FA13
:102F100002460B460491069058460399FDF799FA2C
:102F200080468A4602460B4658460399FDF791FAB9
:102F3000049B069AFDF78DFA83460C980391394657
:102F4000D0E902233046FDF78AFA5A46039BFDF783
:102F500080FA6D1CBDE707980028A2BF099817B03A
:102F6000BDE8F08F616881F000416160099817B099
:102F70004042BDE8F08FFFE784461598C1F3130186
:102F8000C0F30A50A0F2F5304FEA601800F01F06B7
:102F9000C6F12000139000200690079041F4801E97
:102FA00005206D4676B1664A08EB00017A4452F876
:102FB000213002EB8101B3404A68139922FA01F1F2
:102FC000194305E05F4908EB0002794451F82210EB
:102FD000A1FB0E27A1FB0C131A449A4234BF012314
:102FE000002303EB070A05EB8003D3E901B70F4485
:102FF0008F4234BF0121002193448B4411B193458A
:1030000002D903E0934501D2012100E00021C3E988
:1030100001B7514445F82010011EA0F10100C1DCA8
:103020000298059F00F10050800F12900298DDE990
:1030300003568000FDF714FB834628460D91FDF7EB
:10304000E3FC6FF01D02FDF7EBFACDE90E0130460F
:10305000FDF7DAFC6FF03D02FDF7E2FA80468A46A2
:103060003846FDF7D1FC6FF05D02FDF7D9FA07464F
:10307000424653461191FDF74BF9DDE90E23FDF76A
:1030800047F95A460D9BFDF743F900250E465A466F
:1030900028460D9BFDF7DDF9DDE90E23FDF7D9F993
:1030A00042465346FDF7D5F93A46119BFDF7D4F950
:1030B000DFF898A0244A5346FDF7D1F90746884621
:1030C000234A244B31462846FDF7C9F93A46434680
:1030D000FDF71EF9074688464FF0A8425346314691
:1030E0002846FDF7BCF93A464346FDF711F9159A13
:1030F00012F0004F04D0129A81F000415242129215
:10310000C4E90001129817B0BDE8F08FFB21E93F38
:103110007CD90240FB21F93F7370032E8A19A33B2F
:10312000000040543163621A61B4D03DFB21394143
:1031300083C8C96D305FE43F0000E03F2C0E000003
:10314000A80D00008A0D0000182D4454FB21F93D04
:103150003326A611460B113C2DE9FF4D21F0004806
:1031600007460C46B8F1795F08DAFDF7A3FA0028A4
:1031700001BF0020324904B0BDE8F08D3A46234635
:1031800010461946FDF76BF9054602462D480E46D6
:103190000B460621784400F05DF82A463346FDF7D9
:1031A0005EF9DDE9022382468B4638462146FDF76B
:1031B00056F904460F4652465B4628463146FDF70F
:1031C0004EF922463B46FDF744F907468A464FF042
:1031D000FF3228463146FDF723FA1B4A90450ADAAA
:1031E0003A465346FDF735F904B00022BDE8F04DEC
:1031F000134BFDF731B9154A4245A8BFA8F5001594
:103200004FF00004B8BF124D22462B46FDF721F9BE
:103210000646884622462B4600200949FDF719F943
:1032200004460D463A46534630464146FDF711F9ED
:1032300004B022462B46BDE8F04DFDF70DB9000065
:103240000000F03F600B00003333D33F0000E93F44
:103250000000D23F2DE9F0414F1E00EBC7010446AC
:10326000D1E9000115461E4637F006020DD02A4668
:103270003346FDF7F4F87F1E04EBC703D3E90023C0
:10328000FDF746F837F00602F1D1022F25D0042FC2
:1032900013D0062F18BFBDE8F0812A463346FDF74C
:1032A000DEF8D4E90A23FDF733F82A463346FDF762
:1032B000D6F8D4E90823FDF72BF82A463346FDF764
:1032C000CEF8D4E90623FDF723F82A463346FDF766
:1032D000C6F8D4E90423FDF71BF82A463346FDF768
:1032E000BEF8D4E90223FDF713F82A463346FDF76A
:1032F000B6F8D4E90023BDE8F041FDF709B80000B5
:103300002DE9FF4D054621F0004084B00C46B0F198
:10331000795F0BDA2846FFF746FD042808BF00F066
:10332000ADF9284608B02146BDE8F08D2A460B4687
:103330001046FDF794F806460F462A462346FDF749
:103340008EF8804626488A4632463B460521784418
:10335000FFF780FF83461098029160B3214A224B09
:1033600040465146FDF77BF8CDE900015A464046FC
:103370005146029BFDF773F882468846DDE9060157
:103380004FF0FF32FDF74CF952464346FDF761F826
:1033900032463B46FDF763F8DDE90623FDF759F8B1
:1033A000DDE90023FDF755F808B02A462346BDE8BD
:1033B000F04DFDF751B80B465A4630463946FDF7F9
:1033C0004EF8084A084BFCF7A3FF42465346FDF768
:1033D00046F808B02A462346BDE8F04DFCF798BFF2
:1033E0009E0A0000495555555555C5BF2DE9F04D6C
:1033F00004468CB0904821F00047164698460D468A
:103400000991874206DA20462946FDF753F900283C
:1034100000F0AE808948B8421CDC09980028BCBF87
:1034200085F0004588F00048854A864B20462946AD
:10343000FDF712F804460D4632464346824883495A
:10344000FDF707F822462B46FCF762FF00260446EC
:103450000D46B04622462B4610461946FCF7FFFFA4
:103460008B46824602460B46FCF7F9FF024608905F
:1034700077480B46009106217844FFF7EBFECDE933
:103480000310744806217844009B089AFFF7E2FE77
:1034900052465B46FCF7E3FFCDE9051052465B461A
:1034A00020462946FCF7DBFF07910090DDE9031079
:1034B000DDE90532FCF72CFF079B009AFCF7CFFFF4
:1034C00032464346FCF724FF52465B46FCF7C7FFF3
:1034D00032464346FCF71CFF80460E465E4A5F4B71
:1034E00007990098FCF7BBFF42463346FCF710FFF4
:1034F00082468B4622462B46FCF70AFF80464F4801
:103500000E46B84214985BDCFDF7AAF8074642461F
:1035100033460591FCF7FCFECDE9011042463346E7
:1035200010461946FCF79BFFDDE90132FDF709F86B
:1035300052465B46FCF78DFF22462B46FCF78CFF7C
:103540000122FDF76DF83A46059BFCF785FF04461E
:103550000D460998022101EAA070C0F10100FDF7B3
:103560007FF80CB022462B46BDE8F04DFCF777BF44
:103570001498401C384320430BD01498012812D0D3
:103580000CB022462B46BDE8F04D00203449FCF734
:10359000D8BF0CB025F000432246BDE8F04D002016
:1035A0003049FCF7CEBF20462946FFF7FCFB042834
:1035B00008BF00F063F820460CB02946BDE8F08D46
:1035C000012802BF40460CB0BDE8F08D00270B4635
:1035D0003A4620462946FCF73FFF52465B46FCF739
:1035E0003BFF04460D464246334600201C49FCF78B
:1035F000A8FF83463A46884633461046FCF72FFF1D
:103600000022184BFCF784FE06468A4622462B46CB
:1036100038464146FCF723FF32465346FCF778FE16
:103620005A464346FCF71BFF0CB03A464346BDE8FA
:10363000F04DFCF76DBE00000000303E2894E53FE1
:10364000182D4454FB21E93F075C143326A6813C26
:103650009C090000BE090000635555555555D53FDE
:103660000000F0BF0000F03F0122FCF7D9BF0022AC
:10367000134610461146FCF764BF0000024A0020C2
:103680001107FCF7CDBF000001FDFFFF02E008C8F5
:10369000121F08C1002AFAD170477047002001E0CC
:1036A00001C1121F002AFBD17047000001490860C8
:1036B00070470000AC0000202DE9F84F04460D468D
:1036C00021F0004000917349814211DC7249884227
:1036D00001DC06D12CB120462946BDE8F84FFFF7A2
:1036E000C3BF6E48002DCCBF6D496E49BDE8F88F51
:1036F0006D49814211DD6D498142D8BF4FF0FF36DF
:103700006DDD20462946FFF74EFB042808BFFFF772
:10371000B5FF20462946BDE8F88F6549654F25F07D
:103720000045814233DD6449814219DD002632467D
:103730004FF0804320462946FCF7EAFD80468A4642
:10374000012220462946FCF76BFF00223B46FCF78E
:1037500080FE42465346FCF7F4FE04460D463EE02A
:1037600001260022BA463B4620462946FCF7D0FDFA
:1037700080460F460022534620462946FCF769FE44
:1037800042463B46FCF7DDFE04460D4627E04B492A
:1037900081421BDDDFF828A1022600225346204685
:1037A0002946FCF75CFE00223B46FCF7B1FD804653
:1037B0000F460022534620462946FCF74AFE424661
:1037C0003B46FCF7BEFE04460D4608E003262246B3
:1037D0002B4600203B49FCF7B4FE04460D4622462A
:1037E0002B4610461946FCF73AFE8B4682460246A7
:1037F0000B46FCF734FE07460246334888460B4624
:1038000006217844FFF726FD52465B46FCF727FE6B
:1038100082462E488B463A46434605217844FFF7B8
:1038200019FD3A464346FCF71AFE02460B46002EA7
:10383000504659460CDAFCF76BFD22462B46FCF746
:103840000EFE01B022462B46BDE8F04FFCF704BE49
:10385000FCF75EFD22462B46FCF701FE1C4A7A442B
:1038600002EBC603D3E90023FCF7F3FD22462B4607
:10387000FCF7EFFD174A7A4402EBC603D3E90023B5
:10388000FCF7EAFD009A002AB8BF81F00041BDE8CC
:10389000F88F0000000010440000F07F182D445401
:1038A000FB21F93FFB21F9BF0000DC3F0000203E77
:1038B0000000F33F0000F03F0000E63F00800340BF
:1038C0000000F83F0000F0BFC204000080040000C8
:1038D0001E040000E603000000B5244B21F0004266
:1038E00087B09A42DCBF0022134629DD204B9A4262
:1038F00008D140B94FF00100FFF7D8FEFFF7B7FE3F
:1039000007B000BD03DBFFF7AFFE07B000BD02AAA2
:10391000FFF75EFA10F0030104BF0DF1080C9CE8FC
:103920000F000DD0012001290ED0022914D00DF175
:10393000080C00909CE80F00FFF7E2FC07B000BD08
:10394000FFF70AFC07B000BD0DF1080C00909CE8E1
:103950000F00FFF7D5FC05E00DF1080C9CE80F0007
:10396000FFF7FAFB07B081F0004100BDFB21E93F02
:103970000000F07FFDF790FFFEF7BAFFFEF740FE74
:10398000274826490C2201604FF4E13141600021B3
:103990008160C160C0E904128161C161FEF769FD07
:1039A000FEF7AAFEFEF7D2FE1D4804214038FEF7BE
:1039B000F9FC1B4808214038FEF7F4FC194801685F
:1039C0005C38416500F178010968816514488038E8
:1039D000FEF700FB0122144C550329462046FDF753
:1039E00047FF2946114D01222846FDF741FF0122DC
:1039F000960331462846FDF73BFF0122314620461B
:103A0000FDF736FF002261152846FDF731FF002241
:103A100010210748FDF72CFFFEE70000004400409E
:103A2000300100205C00002000100140000C01402B
:103A3000000801402DE9F04114461D4606460F4698
:103A4000FCF782FE03D230463946BDE8F0812046BD
:103A50002946FAE72DE9F05F9046DDE90E67DDE9DA
:103A60000AAB994604460D46FCF756FE03D20020E9
:103A70000146BDE8F09F52465B4620462946FCF7CA
:103A80004BFE10D242464B4650465946FCF7E1FCED
:103A900006460F4642464B4620462946FCF7D9FCCF
:103AA00032463B4620E0DDE90C2320462946FCF760
:103AB00033FE02D200200E49DBE732463B46204669
:103AC0002946FCF729FED2D2DDE90C2330463946DF
:103AD000FCF7BFFC8046894632463B4620462946D5
:103AE000FCF7BAFC42464B46BDE8F05FFCF729BD47
:103AF0000000F03F00B5254B21F0004287B09A420C
:103B000003DC0022134600922BE0214B9A4208D19D
:103B100040B94FF00100FFF7C9FDFFF7A8FD07B05E
:103B200000BD03DBFFF7A0FD07B000BD02AAFFF751
:103B30004FF910F003014FF001000DD0012914D00E
:103B400002291AD00DF1080C9CE80F00FFF704FBC6
:103B500007B081F0004100BD0DF1080C00909CE819
:103B60000F00FFF7CDFB07B000BD0DF1080C9CE87E
:103B70000F00FFF7F1FA07B000BD0DF1080C00903F
:103B80009CE80F00FFF7BCFBE2E70000FB21E93FE8
:103B90000000F07F2DE9F04106460F46FCF7D1FE0C
:103BA000041E0D4618BF0120284320F00040C0F13C
:103BB0007F6000F1E040C00F0ED0301C18BF012024
:103BC000384320F00040C0F17F6000F1E040C00FBA
:103BD00004BF0120FFF76AFD20462946BDE8F081B9
:103BE00010B5164B21F00042012486B09A4203DC46
:103BF0000022134600941CE0114B9A4208D140B9B0
:103C00004FF00100FFF752FDFFF731FD06B010BD88
:103C100003DBFFF729FD06B010BD02AAFFF7D8F8B5
:103C200000F00100A4EB40000DF1080C00909CE8AE
:103C30000F00FFF7DBFB06B010BD0000FB21E93FE2
:103C40000000F07F000000000000000001020304FB
:103C5000060708090000000001020304000000003C
:103C60004FBB610567ACDD3F182D4454FB21E93F94
:103C70009BF681D20B73EF3F182D4454FB21F93F83
:103C8000E2652F227F2B7A3C075C143326A6813C09
:103C9000BDCBF07A8807703C075C143326A6913CB4
:103CA000C4EB98999999C9BF711623FEC671BCBF20
:103CB0006D9A74AFF2B0B3BF9AFDDE522DDEADBF88
:103CC0002F6C6A2C44B4A2BF0D5555555555D53FA0
:103CD000FF8300922449C23F6E204CC5CD45B73FBB
:103CE000513DD0A0660DB13FEB0D76244B7BA93F33
:103CF00011DA22E33AAD903F4C5555555555A53F45
:103D00007751C1166CC156BF9015CB19A001FA3E70
:103D1000AD529C804F7E92BEC4B1B4BD9EEE213E9A
:103D2000D43888BEE9FAA8BD00004054FB21F93F11
:103D30003163621A61B4D03D0000601A61B4D03DB5
:103D40007370032E8A19A33B0000002E8A19A33B2F
:103D5000C14920259A837B39000000000000000043
:103D60006E83F9A22915444ED15727FCC0DD34F5E6
:103D7000999562DB4190433CAB6351FE61C5BBDE6C
:103D80003A6E24B7E0D24D42EA2E49061C92D10980
:103D90001CEB1DFE3EA729B1F53582E88444BB2EFD
:103DA00026709CE9417E5FB439D69139F43953834A
:103DB0008B5F849C3B28F9BDFF97F81F0F9805DEA9
:103DC0008B112FEF1F6D0A5ACF7E366DB709CB27A7
:103DD000663F464F2DEA5F9EC7BA27757BF1E5EB3C
:103DE000F739073DEA92528AB15FFB6B085D8D1F80
:103DF000A6F810111111813FD561C119A0012ABF88
:103E00007DFEB157E31DC73EEB9C2B8AE6E55ABE0B
:103E10007CD5CF5A3AD9E53D7AFE10111111C13F38
:103E200037D60684F464963F280356C9226D6D3F49
:103E30000165F2F2D844433FA69237A0887E143F32
:103E4000735360DBCB75F3BEFE41B31BBAA1AB3F2E
:103E500093846EE9E326823F1583E0FEC8DB573F7B
:103E600068108D1AF726303FE9A7F0320FB8123FDD
:103E7000D47ABF74702AFB3E983E000800000020F0
:103E8000B00000008C360008483F0008B000002059
:103E9000D00400009C36000800008F0100000000E4
:103EA0000000000000000000000000000000604072
:103EB0000000003F00004842000000000000000039
:103EC00000000000000000000000000000000000F2
:103ED000CDCCCC3D9A99193F9A99993E00000000AB
:103EE00000000000000000000000000000000000D2
:103EF0000000000000002041000020410000000000
:103F000000000000000020410000204100000000EF
:103F100000000000000080400000804000000041E0
:103F2000000000410000404100004041000000004E
:103F30000000000001000000100000000000000070
:083F400000A24A040000000089
:04000005080000ED02
:00000001FF
