:020000040800F2
:100000005006002001010008EB2F0008972D000882
:10001000E92F0008230A00088138000800000000CA
:100020000000000000000000000000007532000821
:10003000EB0A0008000000000D300008A93300089A
:100040001B0100081B0100081B0100081B01000820
:100050001B0100081B0100081B0100081B01000810
:100060001B010008A1100008C11000081B010008B6
:10007000B50A00081B0100081B0100081B0100084D
:100080001B0100081B0100081B0100081B010008E0
:100090001B0100081B0100081B0100081B010008D0
:1000A0001B0100081B0100081B0100081B010008C0
:1000B000413400084D3400081B0100081B010008F2
:1000C0001B0100081B0100081B010008113000087B
:1000D0001B0100081B0100081B0100081B01000890
:1000E0001B0100081B0100081B010008DFF80CD0F1
:1000F00000F078FC004800475144000850060020FA
:100100000648804706480047FEE7FEE7FEE7FEE7B1
:10011000FEE7FEE7FEE7FEE7FEE7FEE7F93300084D
:10012000ED000008202A04DB203A21FA02F0002129
:10013000704721FA02F3D040C2F1200291400843F7
:1001400019467047D2B201E000F8012B491EFBD2DC
:1001500070470022F6E710B513460A4604461946D2
:10016000FFF7F0FF204610BDF0B480EA0102D40F83
:100170004200B2EB410F02D20246084611464A0045
:1001800042D0C30DDDB2C1F3C752AD1A202D35DA0E
:10019000C1F3160141F4000204B15242C5F1200638
:1001A00002FA06F12A411044B3EBD05F23D0C4B168
:1001B000012DA0EBC35009DCF0BC4FF0004202EA75
:1001C000C352DBB200F5000000F030BB400000F18C
:1001D000807000EBC350A0F1807040EAD1704900FC
:1001E00009E0490841EAC071A0EBC35000F50000E6
:1001F000400800EBC350F0BC00F00FBB614201228D
:1002000002EB4101001BF6E7F0BC704781F00041B2
:10021000AAE780F00040A7E780EA010210B502F0EB
:100220000043400022D04A001FD0010E01EB1261B2
:10023000C0F35600C2F3560240F4000042F400023C
:10024000A0FB022000047F39140400D0401C50EAB7
:10025000124001D44000491EC2B20C0604EBD0107B
:10026000401C4008802A02D003E0002010BD20F08E
:100270000100002900DA0020184310BD30B480EAE4
:10028000010202F0004530F0004221F0004013D09E
:1002900090B1C30DD40DC2F31601C0F31600E41AD9
:1002A00041F4000140F400027D34914201D3641C0A
:1002B00000E04900002C02DA30BC002070474FF407
:1002C00000000023914201D3891A034340084FEAFA
:1002D0004101F7D151B1914202D14FF0004105E007
:1002E00002D24FF0010101E06FF0010103EBC450B5
:1002F000284430BC00F091BA420005D0C0F3C75288
:100300005242914201DC0020704700EBC15070471F
:100310002DE9FE4F804681EA0300C00F0C46009095
:1003200021F0004123F00045B8EB0200A94105D2BD
:100330004046214690461C460B46024623F00040AC
:10034000104347D0270DC7F30A00C3F30A510290A8
:10035000401A019040286BDAC3F3130040F4801B6D
:100360000098924620B10023D2EB030A63EB0B0BFB
:1003700001985946C0F14002504600F02DFA064659
:100380000D4650465946019A00F035FA10EB080028
:100390006141002487EA115284EAE7731A4340D08E
:1003A000009A62B3019A012A4FEA075215DC001B3A
:1003B00061EB02014FF0004202EA0752CDE9004230
:1003C000001C41F5801132462B4600F06CFA03B058
:1003D000BDE8F08F40462146F9E7001B61EB0201C2
:1003E000001C41F5801300185B412018A2F500178E
:1003F00047EB030140EAD570B6196D4111E06D0875
:100400004FEA360645EAC0754FEA0752001B61EB1A
:100410000201001C41F5801149084FEA3000001923
:10042000514132462B4603B0BDE8F04F00F02CBAE4
:100430000098012240000023D0EB020263EBE0733E
:10044000009821464FEAE074B8EB000061EB04012C
:10045000E9E783F000435BE781F0004158E72DE9CD
:10046000FE4F81EA030404F0004421F000410094AF
:100470004FF0000B23F0004350EA01045ED052EA33
:1004800003045BD0C3F30A54C1F30A552C44A4F20D
:10049000F3340194A0FB0254C1F3130141F4801121
:1004A000C3F3130343F4801301FB024400FB034E28
:1004B000840A970A44EA815447EA8357A4FB0768F1
:1004C00002958D0A05FB07854FEA932C04FB0C541B
:1004D0002705029D4FEA065847EA1637B5EB08058F
:1004E0006EEB070C870E920E47EA811742EA8312E1
:1004F000A7FB0201B6EB0B0164EB00042B0D43EAF2
:100500000C335E1844EB1C50DA465146E7FB0201FF
:10051000C5F313044FEA0B3343EA14534FEA043292
:10052000019C43EA0603A4F10C040294009CCDE96B
:1005300000B400F0B8F903B0BDE8F08F0020014628
:10054000F9E72DE9F04D81EA030404F0004B21F0B6
:10055000004514464FF0000A23F0004150EA05021E
:1005600020D054EA01021DD0C5F30A570246C5F354
:100570001303C1F31300C1F30A5640F4801543F48A
:100580008013A7EB0608101BD64608F2FD3873EB64
:10059000050002D308F1010801E092185B41B8F1AF
:1005A000000F03DA00200146BDE8F08D00204FF473
:1005B0008011064684460EE0171B73EB050705D332
:1005C000121B63EB050306434CEA010C49084FEA92
:1005D000300092185B4150EA0107EDD152EA030066
:1005E00012D082EA040083EA0501084305D0101BFB
:1005F000AB4106D20122002306E000224FF0004367
:1006000002E06FF0010253101AEB06004CEB0851A8
:1006100010EB0A0041EB0B01BDE8F04D00F034B9DE
:1006200070B521F0004303430CD0C1F30A550024F8
:10063000D5EB040564EB0403D617AD1AB34102DB16
:100640000020014670BD201841EB025170BDC10F62
:1006500080EAE0700844CA079623002100F0E6B85B
:100660000EB5C10F80EAE0700844CA07002140F2CD
:1006700033438DE80E000A460B4600F014F903B030
:1006800000BD00F0004220F00040C10DC0F3160094
:1006900040F400007F2901DA00207047962903DC2E
:1006A000C1F19601C84001E096398840002AF4D093
:1006B0004042704770B5C1F30A5201F00045002472
:1006C000C1F3130140F2FF3341F480119A4201DA81
:1006D000002070BD40F233439A42A2F2334203DC61
:1006E0005242FFF71FFD00E090402C43F1D0404202
:1006F00070BD00F0004230F000400AD0C10D01F59D
:100700006071C0F3160042EA0151C208400711436C
:10071000704700200146704730B5041E71F1000497
:1007200004DB4FF00044404264EB0101141E73F1FE
:10073000000405DB1C464FF00043524263EB040308
:100740008B4208BF824230BD30B5041E71F10004F7
:1007500004DB4FF00044404264EB0101141E73F1CE
:10076000000405DB1C464FF00043524263EB0403D8
:10077000994208BF904230BD01F0004330B421F0EF
:10078000004150EA010206D00A0DA2F56072C1F3E1
:100790001301002A02DC30BC00207047440F44EAF9
:1007A000C104C100E01830BC00EBC25000F035B805
:1007B000002801DBC0F10040002901DBC1F100414C
:1007C00081427047002801DBC0F10040002901DBB5
:1007D000C1F1004188427047202A04DB203A00FA28
:1007E00002F1002070479140C2F1200320FA03F388
:1007F000194390407047202A06DBCB17203A41FA74
:1008000002F043EAE07306E041FA02F3D040C2F19D
:10081000200291400843194670470029A8BF70473D
:10082000401C490008BF20F00100704710B4B0FA26
:1008300080FC00FA0CF050EA010404BF10BC7047C1
:1008400049B1CCF1200421FA04F411FA0CF118BFDB
:10085000012121430843A3EB0C01CB1D4FEA0061AA
:100860004FEA102042BF002010BC704700EBC3507D
:1008700010440029A4BF10BC7047401C490008BFA9
:1008800020F0010010BC704710B5141E73F1000475
:1008900008DA401C41F1000192185B411A4301D172
:1008A00020F0010010BD2DE9F04D92469B4611B19C
:1008B000B1FA81F202E0B0FA80F220329046FFF7FE
:1008C0008BFF04460F4640EA0A0041EA0B015346FB
:1008D0005A46084313D0114653EA010019D0C8F113
:1008E00040025046FFF71EFC05460E46504659464C
:1008F0004246FFF771FF084305D0012004E020467F
:100900003946BDE8F08D0020054346EAE0762C43E9
:1009100037430A986305E40AA0EB08000022FD0AA9
:1009200044EA47540A3002D500200146E9E70105B0
:1009300010196941DDE9084500196941BDE8F04D2C
:10094000A2E72DE9F04D00231A461B1A8A4103DB6A
:1009500000200146BDE8F08DC1F30A52C1F3130136
:1009600041F480154FF0000BD10702D100186D4102
:10097000521E0027044640F2FF11384601EB620A7E
:100980003E468046024600204FF48011FFF7CAFB26
:10099000C2197141BB1846EB0100B4EB030C75EBB7
:1009A000000C04D3E41A65EB000517460E46241923
:1009B00008F101006D4180463428E3DDF91946EB6A
:1009C0000600091BA84103D24FF0FF32134601E095
:1009D000002213461BEB070046EB0A51BDE8F04D21
:1009E000FFF752BF064C074D06E0E06840F00103F8
:1009F00094E8070098471034AC42F6D3FFF77AFB2F
:100A0000A0490008C04900080EB540F233410291E8
:100A10000021CDE900110A460B46FFF744FF03B061
:100A200000BDFEE72DE9F047214C82468946E06A89
:100A3000FFF75FFE03F0BEFC06460F4649465046F0
:100A4000FFF792FBFFF755FE8846054632463B46C8
:100A5000FFF705FD4FF0FF363246FFF7E1FDFFF7E8
:100A60008BFE216AFFF780FB2062E06AFFF741FE00
:100A700003F0D6FD2A464346FFF7F1FC3246FFF766
:100A8000CFFDFFF779FE616AFFF76EFB60624946B2
:100A90005046FFF7BBFBE16BFFF7F0FBA16AFFF7E6
:100AA00063FBA06200206060A060BDE8F0870000EA
:100AB00000000020014800F05DBE00000C02002094
:100AC00030B590F840500124AC40C56B6C600468B0
:100AD00063604368102B036803D099600068C260AC
:100AE00030BD9A600068C16030BD70472DE9F04F9D
:100AF00017461E4695B005460C46AB4BDFF8ACA238
:100B00000022FFF721FE02D20020A74901E028467B
:100B100021460446884600225346FFF7FDFD02D2D7
:100B20000024A24D00E0454600229F4B3846314646
:100B3000FFF70AFE02D200209B4901E03846314609
:100B400007460E4600225346FFF7E6FD02D200207C
:100B5000964901E03846314606460020CDE90400BA
:100B60000F4694499248CDE9020190490020DFF8F0
:100B700048A2CDE900018E4A53462046294603F09B
:100B8000FFFC8B4681468D498948CDE90401002050
:100B9000CDE90200CDE90000854A864B2046294672
:100BA00003F0EEFCCDE9080185498148CDE9040157
:100BB0007D490020CDE9020180497D48CDE9000151
:100BC000002213462046294603F0DAFCCDE90A014B
:100BD0000020CDE904007549754ACDE90201CDE94F
:100BE000000153463046394603F0CAFC82460020D5
:100BF0000D466D49CDE90200CDE90401CDE90000C3
:100C000002466A4B3046394603F0BAFC8846044631
:100C10006B496748CDE90401002063490246CDE9EC
:100C20000201CDE9000103463046394603F0A8FC35
:100C300006460F4652462B4648465946FFF70FFCDC
:100C4000059100902246434648465946FFF707FC67
:100C50000191109032463B4648465946FFF7FFFB4C
:100C6000CDE91201DDE9080152462B46FFF7F7FBFB
:100C700011910290DDE9080122464346FFF7EFFBA0
:100C8000CDE90601DDE9080132463B46FFF7E7FB07
:100C900081468B46DDE90A0152462B46FFF7DFFB12
:100CA00005468A46DDE90A0122464346FFF7D7FB9F
:100CB00004468846DDE90A0132463B46FFF7CFFB92
:100CC00006460F46224643464846594603F048FC2E
:100CD00083460991DDE912012A46534603F040FCA0
:100CE00081460B91DDE90601119B029A03F038FC65
:100CF00002460B460199109803F032FC8246079198
:100D00005A4630463946DDF81480009C099BFFF7AF
:100D1000FFFA4A460B9BFFF7FBFA5246079BFFF789
:100D2000F7FA22464346FFF7F3FA00910290224673
:100D3000434600201C49FFF792FB0C90019152465C
:100D40001B482049079BFFF78AFB80460D46002081
:100D50004A4601460B9BFFF782FB0C460A905A4617
:100D600013481949099BFFF77AFB81468A463246A8
:100D70003B4600200D49FFF772FB4A465346FFF7FA
:100D8000C7FA23460A9AFFF7C3FA42462B46FFF7F3
:100D9000BFFA019B0C9AFFF7BBFA009B029A15B0B1
:100DA000BDE8F04FFFF7CDBB0000F03F0000F0BF03
:100DB0009A9999999999B9BF9999F1BF9999B93F18
:100DC0009999F13F9999E93F9999D9BF2DE9F04F48
:100DD00014461F4697B005460E46A84BDFF8A0A262
:100DE0000022FFF7B1FC01D2A44E00250022534699
:100DF00028463146FFF790FC01D2A14E0025B046AF
:100E000000229E4B20463946FFF79EFC02D200206E
:100E10009A4901E02046394606460C4600225346D0
:100E2000FFF77AFC02D20020954901E030462146C6
:100E300004460020CDE904000E4693499148CDE9CF
:100E400002018F490020DFF84492CDE900018D4A6C
:100E50004B462846414603F093FBCDE906018C49F9
:100E60008848CDE904010020CDE90200CDE9000069
:100E7000844A854B2846414603F082FBCDE90801B0
:100E800084498048CDE904017C490020CDE9020174
:100E90007F497C48CDE9000100221346284641469F
:100EA00003F06EFBCDE90A010020CDE9040074498E
:100EB000744ACDE90201CDE900014B462046314696
:100EC00003F05EFB834600208A466C49CDE90200B0
:100ED000CDE90401CDE900000246694B20463146C8
:100EE00003F04EFB0F4605466A496648CDE904010A
:100EF000002062490246CDE90201CDE90001034626
:100F00002046314603F03CFB81468846DDE9060178
:100F10005A465346FFF7A3FA04460E46DDE906019A
:100F20002A463B46FFF79BFACDE90310DDE90601AF
:100F30004A464346FFF793FA01911290DDE9080112
:100F40005A465346FFF78BFACDE91310DDE9080145
:100F50002A463B46FFF783FACDE90510DDE9080193
:100F60004A464346FFF77BFACDE90710DDE90A015F
:100F70005A465346FFF773FA8A461690DDE90A018E
:100F80002A463B46FFF76BFA83460991DDE90A01E1
:100F90004A464346FFF763FA05460F46DDE903106C
:100FA000DDE9133203F0DCFA009104905346169AFF
:100FB0000199129803F0D4FADDE9053281468A4698
:100FC0005846099903F0CCFA02460B46DDE90710B2
:100FD00003F0C6FA8B46069020463146009B049AE1
:100FE000FFF796F94A465346FFF792F95B46069A91
:100FF000FFF78EF92A463B46FFF78AF901910A90DE
:101000002A463B4600201D49FFF729FACDE9071083
:101010005B461C482049069AFFF721FA80460F4696
:1010200000204A4653460146FFF719FA83460D460B
:1010300014481A49009B049AFFF711FA81468A4620
:101040002246334600200E49FFF709FA4A46534626
:10105000FFF75EF95A462B46FFF75AF942463B46E0
:10106000FFF756F9DDE90732FFF752F9019B0A9ABB
:1010700017B0BDE8F04FFFF764BA00000000F03F82
:101080000000F0BF9A9999999999B9BF9999F1BFC0
:101090009999B93F9999F13F9999E93F9999D9BFA0
:1010A00005480168491C016004480168491C016049
:1010B000082000F071BC000004000020880000201F
:1010C00005480168491C016004480168491C016029
:1010D000102000F061BC0000080000208C000020FF
:1010E00010B54FF07F54FFF7B2FA0121FFF704F972
:1010F0000649FFF791F80649FFF78EF82146FFF7FA
:101100008BF8BDE810400349FFF7B8B8C3F5484075
:101110000000E04000E6AA48704770B515460A4650
:10112000044619461046FFF771F80146FFF774F8B8
:10113000064629462046FFF769F80146FFF76CF896
:101140003146FFF711F8FFF7D4FA03F0B9FABDE81A
:101150007040FFF711BB00002DE9FC5F504C0D46BD
:1011600061698846FFF758F88146A0692946054617
:10117000FFF752F8074601462846FFF74DF8FFF7FC
:10118000B8FA05460E4649464046FFF745F8FFF7D0
:10119000B0FA2A463346FFF719FE80468B46394699
:1011A000A069FFF739F8FFF7A4FA05460E4649464D
:1011B0006069FFF731F8FFF79CFA2A463346FFF7DC
:1011C00095FC81468A46A06BFFF793FA064601918B
:1011D0000D46E069FFF78DFA074642465B460091EF
:1011E000FFF73DF92B463246FFF739F905468846A9
:1011F0002069FFF77EFA2A464346FFF789F8FFF792
:10120000BBFA2061DDE90018054638464A465346D8
:10121000FFF725F943463246FFF721F906460F4608
:10122000E068FFF766FA32463B46FFF771F8FFF7D2
:10123000A3FA1C49E060884200DD08461A4AE060D3
:10124000904200D30020E0608D4200DD0D46256114
:10125000954200D300252561D4E90801D4E916237D
:10126000FFF75BFFE064216CFFF7A2FA01D80125CC
:1012700000E00025E068FFF704FA02462B4604214F
:101280000A4802F057F82069FFF7FBF902B02B4635
:10129000BDE8F05F02460821044802F04BB80000A8
:1012A000000000200000C842000080808001002073
:1012B0002DE9FC5F0E461D4611460C9CFEF7A6FF6D
:1012C000019029463046FEF7A1FF06462046FFF76B
:1012D00010FA8B46044603F06DF805460F4630467B
:1012E000FFF707FA06462A463B460091FFF7B7F894
:1012F000074688462046594603F092F981468A46B9
:101300000198FFF7F6F905464A4653460191FFF763
:10131000A6F83A464346FFF79CF8FFF72DFA074632
:101320002046594603F07CF902460B4630460099A8
:10133000FFF795F8064688462046594603F03AF8E6
:1013400002460B4628460199FFF789F83246434684
:10135000FEF7DEFFFFF710FADFF8C080DFF8C0907D
:101360000546B7F5000F1ADB0D98FFF7C2F94246A4
:101370004B46FFF771F803F0C9F906460C462846BC
:10138000FFF7B7F932462346FFF763F8002213460A
:10139000FFF7C2F903D2BDE8FC5F01F0F5BF17F11A
:1013A000FF4F1AD30D98FFF7A4F942464B46FFF7BB
:1013B00053F803F0ABF906460C462846FFF799F9B7
:1013C00032462346FEF7A4FF00221346FFF7A4F996
:1013D00003D2BDE8FC5F01F0C7BF124CD4E909019C
:1013E000CDE90001D4E916120F48236A00F033F862
:1013F000FFF7C2F9A064A16A00F026F8FFF7BCF974
:1014000001466063206B00F011F8FFF7B5F9014663
:10141000606BBDE8FC5FFFF79FBE00001F85EB51CE
:10142000B81EF93F000000209A99193F10B5FEF749
:10143000F0FE0449896BFEF721FFBDE81040FFF77D
:1014400058B900000000002010B5FEF7DFFEBDE82F
:101450001040FFF74EB92DE9FF4F8DB00E46824682
:101460000024254630461099FFF7A2F97DD030467A
:101470001099FEF7CBFE04461A990F98FEF7C6FEA8
:101480002146FEF7FBFE8346DDE90F01FEF7C4FEB1
:10149000054631461A98FEF7BFFE2946FEF7B6FE0E
:1014A0002146FEF7EBFE594600900846FEF7B4FED3
:1014B0004FF07E51FEF758FE059001215846FEF789
:1014C0001BFF04461A99FEF7A7FE05462046009921
:1014D000FEF7A2FE04464FF040411098FEF79CFE36
:1014E0002146FEF741FE2946FEF790FE044651468E
:1014F0000846FEF791FE05461A990098FEF786FE0B
:101500000146FEF789FE109907460846FEF784FE5D
:101510003946FEF729FE2946FEF778FE804630461A
:101520001099FFF745F905984FF0010126D2FEF713
:10153000E3FEFFF7DEF805460F4602210598FEF7A9
:10154000DBFE4146FEF768FE804621460846FEF770
:1015500063FE4146FEF75AFEFFF7CBF803F0B0F802
:101560008046894684F0004000E039E0FFF7C1F88A
:1015700042464B46FEF76DFF2A4623E0FEF7BCFECF
:10158000FFF7B7F881460F4602210598FEF7B4FE33
:101590004146FEF741FE054621460846FEF73CFE61
:1015A0002946FEF733FEFFF7A4F803F089F8054655
:1015B000884684F00040FFF79CF82A464346FEF731
:1015C000A7FE4A463B46FEF7BCFFFFF7D5F80446A8
:1015D00001465846FEF720FE0099FEF7C5FD054678
:1015E00030461099FFF7E4F815D11A990F98FFF7D4
:1015F000DFF805D2344651461A98FEF707FE09E097
:101600001A990F98FFF7DEF805D2344651461A981A
:10161000FEF7AAFD054620461099FEF7F7FD0A9051
:1016200028461A99FEF7F2FD05461B98FFF761F868
:101630008B46044602F0BEFE06460F462846FFF7DC
:1016400058F8054632463B460691FEF708FF8246AB
:1016500088462046594602F0E3FF074689460A9825
:10166000FFF747F806463A464B460391FEF7F7FE6A
:1016700052464346FEF7EDFEFFF77EF880462046D1
:10168000594602F0CDFF02460B4628460699FEF762
:10169000E6FE05460F462046594602F08BFE0246FE
:1016A0000B4630460399FEF7DAFE2A463B46FEF724
:1016B0002FFEFFF761F801464046FEF7DFFDFFF71A
:1016C00018F802F067FDFFF757F801461B98FEF780
:1016D0009DFD11B0BDE8F04FFFF70BB810B590F8C5
:1016E00021100024022903D00421816301243DE05C
:1016F00001680A6822F00E020A6001680A6822F096
:1017000001020A601A4A0168914201D1012121E0D7
:10171000174A1432914201D110211BE0144A283299
:10172000914201D1891515E0114A3C32914201D113
:1017300089140FE00E4A5032914202D14FF48031A9
:1017400008E00B4A6432914202D14FF4801101E06B
:101750004FF08071064A083A5160012180F821104B
:10176000002180F82010416B01B18847204610BD50
:10177000080002402DE9F05FC16B0C6801680B683E
:10178000D0F840C0042202FA0CF2494DDFF824A13F
:10179000494E4A4FDFF828B1DFF828E122422CD029
:1017A0005A072AD50A68920603D40A6822F004026E
:1017B0000A600168A94201D1042219E0514501D112
:1017C000402215E0B14202D14FF4806210E0B942EC
:1017D00002D14FF480420BE0594502D14FF48022F0
:1017E00006E0714502D14FF4800201E04FF08062C3
:1017F0002F4908394A60C16A3BE04FF0020808FAF5
:101800000CF818EA040F4FF000094FF0010235D030
:101810005FEA837832D50B689B0605D40B6823F00A
:101820000A030B6080F821200168A94201D102223D
:1018300019E0514501D1202215E0B14202D14FF407
:10184000007210E0B94202D14FF400520BE059454A
:1018500002D14FF4003206E0714502D14FF400127C
:1018600001E04FF00072124908394A6080F8209078
:10187000816A00291AD0BDE8F05F0847082505FAFB
:101880000CF5254212D01B0710D50B6823F00E0370
:101890000B6090F84010C36B02FA01F1596082634B
:1018A00080F8212080F82090016BE2E7BDE8F09FEE
:1018B000080002401C000240300002404400024088
:1018C000580002406C00024030B528B308C81349E4
:1018D00014221944B1FBF2F18900C16310498163FC
:1018E000022141771A6843F6F0718A43D0E9001467
:1018F0002143D0E902452C43214304692143446933
:10190000214384692143114319600021416301226D
:1019100042770177084630BD012030BDF8FFFDBF9A
:101920000000024070B5044690F820000025012810
:101930000CD0012084F8200094F821600020012EB2
:1019400006D084F820000225284670BD022070BD14
:10195000022684F82160A0632068066826F001064C
:1019600006602046FFF7ACF8E06A002820680168AE
:1019700002D041F00E0106E021F004010160206870
:10198000016841F00A0101602068016841F001012D
:101990000160D9E770470000044910B50A680242A7
:1019A00002D00860FFF7F6FF10BD000014040140EC
:1019B0002DE9F84FDFF890A100220AF1040B14463C
:1019C00001274FF00F090BF1040E00BF0B6807FA57
:1019D00004F52B40AB4274D1DFF870C14E68A6EB22
:1019E0000C0866452BD00DDC032E34D005DC36B355
:1019F000012E19D0022E2FD11BE0112E16D0122E3F
:101A00002AD119E0B8F5881F19D006DCB8F5803F57
:101A100015D0B8F5801F1FD111E0B8F5001F0ED00A
:101A2000B8F5041F18D10AE0CA6815E0CA68121D8B
:101A300012E0CA6808320FE0CA680C320CE08A680B
:101A40002AB1012A4FF0080203D0456104E00422C4
:101A500002E0056100E00022FF2B01D8064601E00C
:101A600000F104064FEA840501D9A5F12005D6F856
:101A700000C009FA05F82CEA080C02FA05F54CEA50
:101A8000050CC6F800C04D68ED0057D5304DAE6965
:101A900046F00106AE61AD6924F0030605F00105CC
:101AA00000952C4D06EB050CDCF80850A6074FEA14
:101AB000167809FA08F6B543274EB04202D100263F
:101AC00010E03BE0254EB04201D101260AE0244E51
:101AD000B04201D1022605E0224EB04201D10326D8
:101AE00000E0042606FA08F62E43CCF808604D689C
:101AF000DAF80060ED03554601D51E4300E09E4331
:101B00002E604D68DBF80060AD035D4601D51E43D5
:101B100000E09E432E604D68DEF80060ED027546E1
:101B200001D51E4300E09E432E604D68AD020E4D70
:101B30002E6801D51E4300E09E432E60641C102CCD
:101B4000FFF444AFBDE8F88F00040140000011101D
:101B5000001002400000014000080140000C01405C
:101B600000100140001401400C0401400AB1016161
:101B700070470904FBE700000148806870470000D7
:101B80009400002002488168027811448160704707
:101B900094000020074810B5016841F01001016071
:101BA000032000F073F8002000F006F800F024F89D
:101BB000002010BD0020024070B50D4D04464FF4CA
:101BC0007A712878B1FBF0F00A490968B1FBF0F0AE
:101BD00000F037FD48B9102C07D200222146501ED4
:101BE00000F034F800206C6070BD012070BD000072
:101BF00094000020A00000200C4808B5816941F045
:101C000001018161816901F001010091C16941F027
:101C10008051C161C06900F0805000900448416863
:101C200021F0E06141F00071416008BD0010024008
:101C30000000014000F01F02012191404009800096
:101C400000F1E020C0F8001170470000F0B40E4B26
:101C50001B680C46C3F30223C3F10705042D00D90A
:101C60000425191D072901D2002300E0DB1E0126EF
:101C700006FA05F1491E214099409E40761E164005
:101C80003143F0BC01F0B2B90CED00E0064900F0C0
:101C9000070208684FF6FF03184040EA0220034A93
:101CA00010430860704700000CED00E00000FA05EA
:101CB0002DE9F047DFF8548105460E46D8F80000BC
:101CC00000F00700B0420CD2D8F8001021F0070154
:101CD0003143C8F80010D8F8000000F00700B04207
:101CE0006FD128684A4C810712D5400703D5606838
:101CF00040F4E06060602878000703D5606840F435
:101D0000605060606068A96820F0F000084360607F
:101D10002878C00744D06868012816D021680228B6
:101D200016D0890700294CDA616821F003010143CC
:101D30006160FFF721FF6968074641F28830012999
:101D40000ED00229814618D026E021688903E9E7F0
:101D50008901E7E7FFF710FFC11B494501D918E0EA
:101D600081466068C0F381000128F3D118E000BF0C
:101D7000FFF702FFC11B49450BD86068C0F3810023
:101D80000228F5D10CE000BFFFF7F6FEC11B494564
:101D900002D90320BDE8F087606810F00C0FF3D182
:101DA000D8F80010404601F00701B1420BD9016894
:101DB00021F0070131430160006800F00700B042E4
:101DC00001D00120E6E72878400705D56068E9687A
:101DD00020F4E060084360602878000706D560685A
:101DE000296920F4605040EAC100606000F036F8D4
:101DF0006168084AC1F30311515CC8400649086094
:101E00000020FFF7D9FE0020C4E7000000200240B8
:101E10000010024070470008A00000200448054957
:101E200000684968044AC1F30221515CC840704708
:101E3000A000002000100240804700080448054927
:101E400000684968044AC1F3C221515CC840704728
:101E5000A0000020001002408047000812A185B0B9
:101E60000FC98DE80F0014A0144A0068049051684F
:101E7000134801F00C03042B10D0082B0ED1C1F332
:101E80008343C9031DF803000AD5516804AAC1F3AE
:101E90004041515C0A4A5043B0FBF1F005B0704735
:101EA00008494843FAE70000020304050607080949
:101EB0000A0B0C0D0E0F1010010200000010024062
:101EC00000127A0000093D002DE9F84F0446007821
:101ED000B94DC00748D06868C0F38100012807D019
:101EE0006868C0F38100022809D16868C00306D57C
:101EF0002868800338D5606800286FD034E06068B7
:101F0000B0F5803F0BD010B1B0F5A02F11D02868EC
:101F100020F480302860286820F4802002E02868BF
:101F200040F480302860606888B1FFF725FE0646DF
:101F300009E0286840F480202860F0E7FFF71CFEE5
:101F4000801B642875D828688003F7D50CE0FFF75C
:101F500013FE064605E000BFFFF70EFE801B642857
:101F6000F0D828688003F7D42078944E80074FF08B
:101F700001094FF000083BD5686810F00C0F07D03E
:101F80006868C0F38100022809D16868C00306D4DC
:101F90002868800714D5206901281FD110E0206926
:101FA000B0B1C6F80090FFF7E7FD074605E000BFB7
:101FB000FFF7E2FDC01B0228C4D828688007F7D5C8
:101FC0002868616920F0F80040EAC10028600FE04D
:101FD000C6F80080FFF7D0FD074606E0E9E000BF45
:101FE000FFF7CAFDC01B022823D828688007F7D452
:101FF000207800072CD57248A169D9B1C0F80090AB
:10200000FFF7BAFD074604E0FFF7B6FDC01B022844
:102010000FD8686A8007F7D56A484FF4FA5100680C
:10202000B0FBF1F0009000BF0098411E0091FAD281
:102030000EE080E0C0F80080FFF79EFD074604E058
:10204000FFF79AFDC01B022875D8686A8007F7D48D
:102050002078400760D5E8690027C00008D4E86907
:1020600040F08050E861E869012700F0805000905E
:1020700055480168C90513D40168834641F480714D
:102080000160FFF779FD824606E000BFFFF774FDAF
:10209000A0EB0A0064284ED8DBF80000C005F5D597
:1020A000E06801280AD008B1052813D0286A20F07A
:1020B00001002862286A20F0040002E0286A40F04B
:1020C00001002862E06841F2883B98B1FFF754FDB7
:1020D00082460BE0286A40F004002862EEE700BF69
:1020E000FFF74AFDA0EB0A0159455AD8286A800734
:1020F000F6D50CE0FFF740FD824605E0FFF73CFD1A
:10210000A0EB0A0159454CD8286A8007F6D41FB1C4
:10211000E86920F08050E861E06988B36968C1F33C
:102120008101022945D00228C6F8608004D0FFF75B
:1021300023FD044638E034E0FFF71EFD074604E0C7
:10214000FFF71AFDC01B02282BD828688001F7D49E
:10215000206AB0F5803F05D16868A16820F400309E
:1021600008436860D4E908010843696821F47411E0
:1021700008436860C6F86090FFF7FEFC044606E07E
:1021800015E000BFFFF7F8FC001B022809D82868FB
:102190008001F7D50BE000BFFFF7EEFC001B022823
:1021A00002D90320BDE8F88F28688001F4D400200C
:1021B000F8E70120F6E7000000100240000042426C
:1021C00080044242A00000200070004070470000E0
:1021D00038B504460068426881684B0605D4CB07D1
:1021E00003D0530601D5216C04E08B0707D51306F5
:1021F00005D5616C01B02046BDE83040084711F0BC
:10220000600F3FD093063DD54B060AD594F8513068
:10221000032B34D0636D43F004036365C3688368A4
:102220000093890609D5616D41F0010161658168FE
:102230000091016821F040010160606D002821D00B
:102240002068416821F0E0014160012084F85100DC
:10225000900718D02068416821F0030141600C4DBF
:10226000E06C18B14563E06CFFF738FAA06C002809
:1022700008D04563A06CBDE83840FFF72FBAC168AD
:102280008068009038BD2046FFF7A0FF38BD0000F1
:10229000B930000870B5040005D00025A56294F897
:1022A000510010B104E0012070BD204600F034F868
:1022B000022084F851002068016821F0400101608B
:1022C000D4E901010843D4E90312114308436169C9
:1022D0000843218B01F400710843E1690843216A36
:1022E0000843A16A084321680860A069042101EA43
:1022F0001040616A0843216848602168E06A08610B
:102300002068C16921F40061C1616565012084F81C
:102310005100002070BD000070B586B00025064653
:1023200000950195029503950068214988423DD1A9
:102330002049886940F480508861886900F48050A1
:102340000490886940F00400886188691A4C00F0A4
:1023500004000490B020009069462046FFF728FB57
:1023600040200090022001900320039069462046FF
:10237000FFF71EFB124C1148C4E900058020C4E998
:10238000025020202561C4E905502046E561FFF791
:102390009BFA08B1FEF7C0FEF46400221146232028
:1023A0006662FFF753FC2320FFF744FC06B070BDC4
:1023B0000030014000100240000801401C000240B3
:1023C0000C0200202DE9F041044600268068042319
:1023D00018B96568B5F5827F0DD094F85050012D7D
:1023E00012D0012584F8505094F851700025012F27
:1023F0000DD0022646E084F851302046BDE8F04179
:1024000013460A4600F04AB80220BDE8F08171B1D7
:102410006AB184F851306565A163A287E2872564BB
:102420006564A586E586B0F5004F02D006E001267A
:1024300028E02068016821F480410160E16C1348C4
:10244000C862E16C12488862E16C12480863E06C73
:102450004563E38F2168A26B0C31E06CFFF762FAF1
:1024600020680168490603D4016841F04001016019
:102470002068416841F0200141602068416841F0D6
:102480000101416084F850503046BEE7EB3000084F
:10249000FF300008C9300008704770472DE9F0414F
:1024A000044690F85000002601280CD0012084F842
:1024B000500094F851000025676801280CD0B7F54A
:1024C000827F07D102E00220BDE8F081A7680FB942
:1024D000042801D0022651E031B12AB123B194F889
:1024E0005100012802D004E0012647E0052084F8CD
:1024F000510065652163A386E386A263A387E38712
:102500002564656494F8510004283BD0E16C2048B0
:10251000C8622048E16C8862E16C1F480863E06C87
:102520004563E38F2168A26B0C31E06CFFF7FAF989
:102530002068416841F001014160A06CC562A06C57
:102540008562A06C0563A06C4563E38E2268216BF5
:102550000C32A06CFFF7E6F920680168490603D445
:10256000016841F0400101602068416841F02001AC
:1025700041602068416841F00201416084F8505098
:102580003046A1E7E16C0548C8620548C2E7000093
:10259000F530000851310008C9300008EB30000860
:1025A000FF30000830B590F850300024012B0BD0DC
:1025B000012380F85030002341B13AB190F85150D6
:1025C000012D05D002242DE0022030BD012429E098
:1025D000032580F85150436501638286C286836378
:1025E0008387C3870364C16809B1124900E01249B7
:1025F00041648168B1F5004F04D101680A6842F472
:1026000080420A608168002901684A680ED042F061
:10261000A0024A6001680A68520603D40A6842F0C0
:1026200040020A6080F85030204630BD42F08002FF
:10263000EFE70000A1310008C13100087047704782
:10264000704710B5401EB0F1807F01D3012010BD4E
:102650004FF0E02460610F21601700F0C7FC0020FC
:10266000A06107202061002010BD7047704730B581
:1026700090F83C20012A20D0012280F83C2002233F
:1026800080F83D3003685C6824F070045C60036887
:102690005C680D682C435C6003689C6824F08004CF
:1026A0009C6003689C6849680C439C6080F83D20EE
:1026B000002180F83C10084630BD022030BD10B526
:1026C000040003D094F83D0010B107E0012010BDD4
:1026D000002084F83C00204600F00CF8022084F82A
:1026E0003D00211D206800F0C1FE012084F83D005E
:1026F000002010BD08B501681948B1F1804F14D011
:10270000184A914220D1C16941F00201C161C069FA
:10271000002200F00200009011461D20FFF796FAFB
:102720001D20BDE80840FFF785BAC16941F00101ED
:10273000C161C069002200F00100009011461C2018
:10274000FFF784FA1C20ECE7074A914207D1C169E0
:1027500041F00401C161C06900F00400009008BDAF
:102760000010024000040040000800400168CA68F0
:1027700042F00102CA600068016841F00101016095
:102780000020704770B5044690F83C00012817D02F
:10279000012584F83C50022084F83D0020688268BE
:1027A00022F0770222F47F4282600868502837D0F6
:1027B0000DDC202859D005DC88B3102841D151E028
:1027C000022070BD302853D040283AD13FE0602825
:1027D0002ED070280BD0B0F5805F03D0B0F5005F2D
:1027E0002FD110E02068816821F0070115E0CB6847
:1027F000D1E90121206800F07AFE2168886840F064
:10280000770088601DE0CB68D1E90121206800F0E5
:102810006EFE2068816841F48041816011E01EE015
:10282000CA684968206800F017FF5021206806E058
:10283000CA684968206800F020FF6021206800F025
:1028400060FE84F83D50002084F83C0070BDCA68EA
:102850004968206800F000FF40212068EFE7002170
:102860002068ECE710212068E9E720212068E6E7EE
:1028700030212068E3E7704770B5044600680169BD
:102880004FF00005C943890715D4C168C9438907BA
:1028900011D4E91E0161012020772068806980073A
:1028A000204602D0FFF7E7FF04E000F0C1F8204621
:1028B00000F043F9257720680169C943490717D417
:1028C000C168C943490713D46FF0040101610220B4
:1028D00020772068806910F4407F204602D0FFF7FF
:1028E000CAFF04E000F0A4F8204600F026F925779E
:1028F00020680169C943090716D4C168C94309079B
:1029000012D46FF008010161042020772068C069AB
:102910008007204602D0FFF7AEFF04E000F088F801
:10292000204600F00AF9257720680169C943C906E5
:1029300017D4C168C943C90613D46FF010010161EF
:10294000082020772068C06910F4407F204602D01C
:10295000FFF791FF04E000F06BF8204600F0EDF87F
:10296000257720680169C943C90708D1C168C943EF
:10297000C90704D1891E0161204600F0F7F82068DC
:102980000169C943090609D4C168C943090605D4C8
:102990006FF0800101612046FFF767FE2068016942
:1029A000C943490609D4C168C943490605D46FF033
:1029B00040010161204600F027F920680169C94300
:1029C00089060BD4C168C943890607D46FF020017A
:1029D00001612046BDE87040FFF748BE70BD0000B1
:1029E00000B585B00021009101910291039100682A
:1029F0000C49884213D10C48816941F0080181617A
:102A00008069694600F0080004904FF4C07000909F
:102A100002200190032003900448FEF7C9FF05B08F
:102A200000BD00000008004000100240000C014002
:102A3000704770B5044690F83C000D4601280DD053
:102A4000012684F83C60022084F83D0042B1042A4B
:102A500018D0082A2AD00C2A4DD139E0022070BDA6
:102A6000206800F057FD2068816941F0080181610C
:102A70002068816921F004018161206881692A69E7
:102A8000114311E0206800F06DFD2068816941F478
:102A9000006181612068816921F480618161206821
:102AA00081692A6941EA0221816124E0206800F0FD
:102AB00085FD2068C16941F00801C1612068C169D4
:102AC00021F00401C1612068C1692A69114311E044
:102AD000206800F09FFD2068C16941F40061C16178
:102AE0002068C16921F48061C1612068C1692A69D7
:102AF00041EA0221C16184F83D60002084F83C0075
:102B000070BD10B5040003D094F83D0010B107E08B
:102B1000012010BD002084F83C00204600F00CF895
:102B2000022084F83D00211D206800F09FFC012058
:102B300084F83D00002010BD7047704710B5044672
:102B40000068012200F0C8FC07492068884203D1D0
:102B5000416C41F4004141642068016841F0010189
:102B60000160002010BD0000002C01407CB523490D
:102B70000068234C096888423ED12078401C2070B0
:102B8000A068FEF7ADFA05466068FEF7A9FA0146AF
:102B90002846FDF747FF00F06FFBA16A606B00F06D
:102BA00069FED4E90801D4E91623FEF7B6FAE06419
:102BB000216CFDF7FDFD15D2606C401C6064062899
:102BC00005DC0F4901F1700151F8201000E0216A85
:102BD000A16505DC0A4901F17C0151F8200000E003
:102BE000606AE0650749A06ACDE90001D4E91601F1
:102BF000D4E90823FEF75CFB7CBD00000001002047
:102C0000000000201904863F704770B5040004D00E
:102C100094F83900002510B106E0012070BD84F859
:102C20003850204600F022F8242084F8390020682B
:102C3000C16821F40051C160204600F031FD2068D8
:102C4000016921F4904101612068416921F02A0164
:102C500041612068C16841F40051C160E5632020F2
:102C600084F8390084F83A00002070BD30B585B092
:102C7000002400940194029403940068144988424B
:102C800023D11448C16941F40031C161C16901F423
:102C900000310491816941F00401816180690E4D28
:102CA00000F0040004900420009002200190032012
:102CB000039069462846FEF77BFE0820CDE9000414
:102CC000694628460294FEF773FE05B030BD000049
:102CD0000044004000100240000801402DE9F84384
:102CE000044690F839001F4616460D46202850D15C
:102CF000A5B19EB194F8380001284AD0012084F88B
:102D000038004FF00008C4F83C80212084F83900D6
:102D1000FEF732FFA6848146E68426E00120BDE866
:102D2000F883E08C401EE084A0684B46B0F5805FDD
:102D30004FF000024FF080012046009703D000F0D2
:102D400067FDE8B90DE000F063FDC8B92888216887
:102D5000C0F308004860206908B16D1C05E0AD1C97
:102D600003E0216815F8010B4860E08C0028D8D1F9
:102D70004B46002240212046009700F049FD08B153
:102D80000320CCE7202084F8390084F83880002024
:102D9000C5E70220C3E7FEE72DE9F04786B000242F
:102DA00035480094019402940394816941F0100124
:102DB0008161816901F010010491816941F0040190
:102DC0008161816901F004010491816941F0080188
:102DD00081618069DFF8A48000F008004FF460454D
:102DE0000490002229464046FEF7C0FEDFF890908E
:102DF000002202214846FEF7B9FEDFF888A04FF412
:102E0000C447002239465046FEF7B0FE0126CDE900
:102E10000056022569464046CDE90245FEF7C8FD49
:102E2000CDE9005669464846CDE90245FEF7C0FDAA
:102E3000CDE9007669465046CDE90245FEF7B8FD7A
:102E4000182000901048CDE9010469465046FEF76D
:102E5000AFFD002211460920FEF7F8FE0920FEF71B
:102E6000E9FE002211460A20FEF7F0FE0A20FEF7D6
:102E7000E1FE06B0BDE8F0870010024000100140FE
:102E800000080140000C0140000011100A480949E7
:102E900028220160002141608160C16001614161BF
:102EA000C0E906120162416281620A21C162FFF734
:102EB000F1B9000000300140A800002010B586B034
:102EC00000241248009401940294039404944FF057
:102ED00080410594016041F6FF01C0E9011440F210
:102EE000E731C0E903148461FFF7E9FB4FF4805038
:102EF000009069460548FFF745FC049404A903487F
:102F00000594FFF7B4FB06B010BD000000010020DF
:102F100010B586B0002412480094019402940394E2
:102F200004940E490594016041F6FF01C0E90114C3
:102F300040F2E731C0E903148461FFF7C0FB4FF4AE
:102F40008050009069460648FFF71CFC049404A9D1
:102F500003480594FFF78BFB06B010BD000400404A
:102F60004001002010B58EB0002407940894099405
:102F70000A940B941C2168460C94FDF7EAF8194852
:102F8000174901601421C0E9011440F28F11C0E912
:102F900003148461FFF793FB4FF48050079007A957
:102FA0001048FFF7EFFB0F48FFF7ABFD0B940BA9A1
:102FB0000C480C94FFF75BFB6020CDE90004029401
:102FC0000422694607480494FFF733FD0822694646
:102FD0000448FFF72EFD0348FFF702FD0EB010BDB9
:102FE0000008004080010020FEE770470907090E35
:102FF000002806DA00F00F0000F1E02080F8141D30
:10300000704700F1E02080F800147047704700001E
:103010000148FFF7DDB80000A800002038B50B46D6
:10302000009204460022802100F0D9F8002804D044
:10303000606D40F020006065032038BD38B504465F
:103040001C4845F6C0510068B0FBF1F064214843CC
:103050000090FEF791FD0246206800994B1E0093F8
:1030600004D2616D41F02001616502E08168890749
:10307000F3D5416821F0A001416064212046FFF7AB
:10308000CDFF18B1606D40F020006065A06818B9F0
:103090002068C16880680090012084F85100606D4C
:1030A0000028204602D0FFF791F838BDFFF7C6FA96
:1030B00038BD0000A000002010B5406A0021C18783
:1030C000C186FFF783F810BD10B5406A01684A68F1
:1030D00022F003024A60416D41F010014165012177
:1030E00080F85110FFF772F810BD10B5406AFFF775
:1030F000D4F910BD10B5406AFFF7A2FA10BD10B5A3
:103100000146406A0968096889061ED401684A6850
:1031100022F003024A604168B1F5827F0BD18168D9
:10312000B1F5004F02D0B1F5806F04D101680A6893
:1031300022F040020A600021C187012180F851106D
:10314000416D11B1FFF742F810BDFFF7A5F910BDB1
:1031500070B50546446AFEF70FFD02462868006810
:10316000800619D464212046FFF758FF18B1606D1E
:1031700040F0200060652068416821F00301416053
:103180000020E086E087012084F85100606D18B1CE
:103190002046FFF71BF870BD2046FFF750FA70BDC0
:1031A000016B02680988D160016B891C0163C18EC3
:1031B000491EC186C18E002901D1FFF73FBF70476C
:1031C000016B4A1C0263026809781173C18E491EA3
:1031D000C186C18E002901D1FFF730BF70472DE9AC
:1031E000F0411D4617460E460446DDF8188035E0CE
:1031F000681C33D02DB1FEF7BFFCA0EB0800A8423D
:103200002CD32068416821F0E00141606068B0F58E
:10321000827F0BD1A068B0F5004F02D0B0F5806F6F
:1032200004D12068016821F040010160A06AB0F576
:10323000005F0AD1206801684DF6FF7211400160FD
:103240002068016841F400510160012084F85100B8
:10325000002084F850000320BDE8F08120688068D9
:1032600036EA000004D00020B842C1D10020F3E7C4
:103270000120F9E770470000124A1349106A1065EF
:1032800002F1500003780B7043784B7083788B7099
:10329000C078C870506A506502F154004FF4FA5378
:1032A00002780A7142784A7182788A71C078C8714E
:1032B0000D2008720A2048720246A1F14000FFF773
:1032C0000DBD000000000020000200200C4800F1AD
:1032D000200102780A7042784A7082788A70C07839
:1032E000C870A1F1400002780A7142784A71827870
:1032F0008A71C078C87108220248FFF753B90000EC
:1033000048000020A8000020642A01DD642202E0B9
:10331000002A00DA0022064B5B885343642293FBA9
:10332000F2F2036821F0030034301A5070470000B5
:103330000000002010B5642A01DD642202E0002AAA
:1033400000DA0022074CC3F101036488544364226D
:1033500094FBF2F25343026821F00300343013501F
:1033600010BD00000000002000B51E220421054809
:10337000FFF7CAFF3C22082102485DF804EBFFF783
:10338000C3BF00008001002000B53C220421054895
:10339000FFF7BAFF1E22082102485DF804EBFFF791
:1033A000B3BF000080010020FEF7ECBB30B58FB04A
:1033B00028216846FCF7CDFE14210AA8FCF7C9FEB7
:1033C00002240120049000941020059000254FF461
:1033D0006010CDE9085007946846FEF775FD0AA90C
:1033E0000F2081E831006002CDE90D0502210AA815
:1033F000FEF75EFC0FB030BD0D48016841F00101E1
:10340000016041680B4A1140416001680A4A11405D
:103410000160016821F480210160416821F4FE010E
:1034200041604FF41F0181600449C0030860704788
:10343000001002400000FFF8FFFFF6FE08ED00E07C
:103440000148FFF719BA00000001002010B5FFF78E
:103450003DFF04480168491C0160BDE81040024876
:10346000FFF70ABA9000002040010020F0B5026882
:10347000164B174C174D4FF08047984205D0B84275
:1034800003D0A04201D0A84203D122F070064A68BE
:103490003243984205D0B84203D0A04201D0A8429E
:1034A00003D122F44074CA68224322F080044A699E
:1034B000224302608A68C2620A688262984201D12D
:1034C0000969016301214161F0BD0000002C014048
:1034D000000400400008004010B50123046A8B403E
:1034E0009C430462036A8A401343036210BD10B513
:1034F000846842EA032224F47F440A432243826020
:1035000010BD826822F070020A4342F00701816018
:103510007047000030B5026A22F001020262026ABE
:103520004368846924F073050C682C4322F002057B
:103530008A682A430A4DA8420BD122F00805CA68BE
:1035400023F440732A434D6922F004021D438B6922
:103550002B434360846149684163026230BD0000CF
:10356000002C014030B5026A22F010020262026AA9
:10357000436884690D6824F4E64444EA05248D68B0
:1035800022F0200242EA05120B4DA8420ED1CD686E
:1035900022F0800242EA05124D6923F4406343EAB7
:1035A00085038D6922F0400243EA8503436084610C
:1035B00049688163026230BD002C014030B5026A67
:1035C00022F480720262036A4268C46923F40073C1
:1035D00024F073050C682C438D6843EA05230C4DD9
:1035E000A8420ED1CD6823F4006343EA05234D6958
:1035F00022F4405242EA05128D6923F4806342EAC4
:1036000005124260C4614968C163036230BD0000B5
:10361000002C014030B5026A22F480520262046A32
:103620004268C3690D6823F4E64343EA05238D68C5
:1036300024F4005444EA0534064DA84204D14D69EF
:1036400022F4804242EA85124260C3614968016403
:10365000046230BD002C014010B5036A046A24F0F6
:1036600001040462846924F0F00444EA021423F0A3
:103670000A020A438461026210BD10B5036A23F096
:10368000100303628369046A23F4704343EA02323D
:1036900024F0A00343EA01118261016210BD000021
:1036A0002DE9F041044600680169E26821F44051C7
:1036B000114301612169A0680843616908432168D9
:1036C000CA6841F20C639A430243CA6020684169A8
:1036D000A26921F44071114341614C49206864257D
:1036E000322688423CD1FEF7A9FB00EBC00101EB7A
:1036F000001061688900B0FBF1F7FEF79FFB00EB5B
:10370000C00101EB00106168B0468900B0FBF1F028
:10371000B0FBF5F06FF01801484307EB800106EBB2
:103720000110B0FBF5F000F0F006FEF787FB00EBB0
:10373000C00101EB001061688900B0FBF1F0B0FB43
:10374000F5F006EB0016FEF779FB00EBC00101EB8C
:10375000001061688900B0FBF1F7FEF76FFB3BE0FA
:10376000FEF75CFB00EBC00101EB00106168890013
:10377000B0FBF1F7FEF752FB00EBC00101EB0010CC
:103780006168B0468900B0FBF1F0B0FBF5F06FF076
:103790001801484307EB800106EB0110B0FBF5F080
:1037A00000F0F006FEF73AFB00EBC00101EB001061
:1037B00061688900B0FBF1F0B0FBF5F006EB001694
:1037C000FEF72CFB00EBC00101EB001061688900E3
:1037D000B0FBF1F7FEF722FB00EBC00101EB00109C
:1037E00061688900B0FBF1F0B0FBF5F06FF01801F3
:1037F000484307EB800108EB0110B0FBF5F02168AE
:1038000000F00F0030448860BDE8F08100380140CE
:103810002DE9F041984617460E460446069D1DE0E8
:10382000681C1BD02DB1FEF7A7F9A0EB0800A84239
:1038300014D92068C16821F4D071C1602068416941
:1038400021F001014161202084F8390084F83A0018
:10385000002084F838000320BDE8F081206800686B
:1038600036EA000004D00020B842D9D00020F3E7A7
:103870000120F9E7014AC2E90B107047000000205F
:10388000FEE7490050EAC12018BF04204A0D18BFC6
:1038900040F0010040F2FF72B2EB515F08BF40F010
:1038A0000200012808BF0520704700002DE9F74FEE
:1038B000144694B00021C4E902111599079121F032
:1038C0000045C9498D4206DC1599C4E9000117B0CD
:1038D0000020BDE8F08FC549DFF814A3A9423CDD04
:1038E0000799C44E0029C44FC44A1599534619DD9F
:1038F000FCF7AFFD554506D0C14AC24BFCF7A9FD08
:10390000C4E900010AE04FF0D352BE4BFCF7A1FD21
:1039100032463B46FCF79DFDC4E9000117B001208B
:10392000BDE8F08FFCF7F4FC554506D0B44AB54B22
:10393000FCF7EEFCC4E900010AE04FF0D352B14BB2
:10394000FCF7E6FC32463B46FCF7E2FCC4E900012A
:1039500017B04FF0FF30BDE8F08FAB49A942159981
:1039600078DB21F0004183468846A84AA84BFCF743
:1039700076FD0022A74BFCF7CBFCFCF79BFE0990E1
:10398000FCF76EFE06460F469C4A5346FCF767FD61
:1039900043465A46FCF760FD80468A46984A994B52
:1039A00030463946FCF75BFD2A0D01250B92424655
:1039B0005346FCF751FD032DC4E9000139D00B98A3
:1039C000C1F30A51401A05EB45111139814230DA31
:1039D0009148C346784400EB0510CDF80CA00C903C
:1039E000D0E9002330463946FCF739FD02460B4644
:1039F0000491069058460399FCF72BFD80468A46B1
:103A000002460B4658460399FCF723FD049B069A91
:103A1000FCF71FFD83460C9803913946D0E9022339
:103A20003046FCF71CFD5A46039BFCF712FD6D1C4B
:103A3000BDE707980028A2BF099817B0BDE8F08F2E
:103A4000616881F000416160099817B04042BDE8AB
:103A5000F08FFFE784461598C1F31301C0F30A50B5
:103A6000A0F2F5304FEA601800F01F06C6F1200002
:103A7000139000200690079041F4801E05206D46AB
:103A800076B1664A08EB00017A4452F8213002EB25
:103A90008101B3404A68139922FA01F1194305E004
:103AA0005F4908EB0002794451F82210A1FB0E2770
:103AB000A1FB0C131A449A4234BF0123002303EBE9
:103AC000070A05EB8003D3E901B70F448F4234BFE7
:103AD0000121002193448B4411B1934502D903E0A5
:103AE000934501D2012100E00021C3E901B751440F
:103AF00045F82010011EA0F10100C1DC0298059FCD
:103B000000F10050800F12900298DDE9035680000A
:103B1000FCF7A6FD834628460D91FCF775FF6FF074
:103B20001D02FCF77DFDCDE90E013046FCF76CFF70
:103B30006FF03D02FCF774FD80468A463846FCF77C
:103B400063FF6FF05D02FCF76BFD0746424653468C
:103B50001191FCF7DDFBDDE90E23FCF7D9FB5A469A
:103B60000D9BFCF7D5FB00250E465A4628460D9BBB
:103B7000FCF76FFCDDE90E23FCF76BFC4246534675
:103B8000FCF767FC3A46119BFCF766FCDFF898A04F
:103B9000244A5346FCF763FC07468846234A244BD5
:103BA00031462846FCF75BFC3A464346FCF7B0FB3F
:103BB000074688464FF0A842534631462846FCF750
:103BC0004EFC3A464346FCF7A3FB159A12F0004F11
:103BD00004D0129A81F0004152421292C4E90001CD
:103BE000129817B0BDE8F08FFB21E93F7CD9024065
:103BF000FB21F93F7370032E8A19A33B0000405448
:103C00003163621A61B4D03DFB21394183C8C96D6B
:103C1000305FE43F0000E03F780E0000F40D00004C
:103C2000D60D0000182D4454FB21F93D3326A61172
:103C3000460B113C2DE9FF4D21F0004807460C468C
:103C4000B8F1795F08DAFCF735FD002801BF0020E4
:103C5000324904B0BDE8F08D3A4623461046194675
:103C6000FCF7FDFB054602462D480E460B46062195
:103C7000784400F05DF82A463346FCF7F0FBDDE9B6
:103C8000022382468B4638462146FCF7E8FB044671
:103C90000F4652465B4628463146FCF7E0FB22467B
:103CA0003B46FCF7D6FB07468A464FF0FF322846D4
:103CB0003146FCF7B5FC1B4A90450ADA3A465346B2
:103CC000FCF7C7FB04B00022BDE8F04D134BFCF736
:103CD000C3BB154A4245A8BFA8F500154FF0000424
:103CE000B8BF124D22462B46FCF7B3FB064688466A
:103CF00022462B4600200949FCF7ABFB04460D4643
:103D00003A46534630464146FCF7A3FB04B02246F0
:103D10002B46BDE8F04DFCF79FBB00000000F03FD4
:103D2000AC0B00003333D33F0000E93F0000D23F2B
:103D30002DE9F0414F1E00EBC7010446D1E9000117
:103D400015461E4637F006020DD02A463346FCF7CC
:103D500086FB7F1E04EBC703D3E90023FCF7D8FAE8
:103D600037F00602F1D1022F25D0042F13D0062FF1
:103D700018BFBDE8F0812A463346FCF770FBD4E952
:103D80000A23FCF7C5FA2A463346FCF768FBD4E958
:103D90000823FCF7BDFA2A463346FCF760FBD4E95A
:103DA0000623FCF7B5FA2A463346FCF758FBD4E95C
:103DB0000423FCF7ADFA2A463346FCF750FBD4E95E
:103DC0000223FCF7A5FA2A463346FCF748FBD4E960
:103DD0000023BDE8F041FCF79BBA00002DE9FF4D40
:103DE000054621F0004084B00C46B0F1795F0BDA53
:103DF0002846FFF746FD042808BF00F0ADF9284625
:103E000008B02146BDE8F08D2A460B461046FCF767
:103E100026FB06460F462A462346FCF720FB804633
:103E200026488A4632463B4605217844FFF780FF04
:103E300083461098029160B3214A224B4046514676
:103E4000FCF70DFBCDE900015A4640465146029B66
:103E5000FCF705FB82468846DDE906014FF0FF329C
:103E6000FCF7DEFB52464346FCF7F3FA32463B468C
:103E7000FCF7F5FADDE90623FCF7EBFADDE90023B0
:103E8000FCF7E7FA08B02A462346BDE8F04DFCF7F8
:103E9000E3BA0B465A4630463946FCF7E0FA084A80
:103EA000084BFCF735FA42465346FCF7D8FA08B0FF
:103EB0002A462346BDE8F04DFCF72ABAEA0A00007C
:103EC000495555555555C5BF2DE9F04D04468CB0A3
:103ED000904821F00047164698460D4609918742C2
:103EE00006DA20462946FCF7E5FB002800F0AE8004
:103EF0008948B8421CDC09980028BCBF85F0004501
:103F000088F00048854A864B20462946FCF7A4FAEB
:103F100004460D463246434682488349FCF799FAE7
:103F200022462B46FCF7F4F9002604460D46B0461F
:103F300022462B4610461946FCF791FA8B468246DC
:103F400002460B46FCF78BFA0246089077480B4670
:103F5000009106217844FFF7EBFECDE90310744889
:103F600006217844009B089AFFF7E2FE52465B4622
:103F7000FCF775FACDE9051052465B462046294606
:103F8000FCF76DFA07910090DDE90310DDE90532D9
:103F9000FCF7BEF9079B009AFCF761FA32464346EC
:103FA000FCF7B6F952465B46FCF759FA32464346EF
:103FB000FCF7AEF980460E465E4A5F4B07990098C3
:103FC000FCF74DFA42463346FCF7A2F982468B468F
:103FD00022462B46FCF79CF980464F480E46B842D5
:103FE00014985BDCFCF73CFB0746424633460591E0
:103FF000FCF78EF9CDE901104246334610461946CA
:10400000FCF72DFADDE90132FCF79BFA52465B46DC
:10401000FCF71FFA22462B46FCF71EFA0122FCF79A
:10402000FFFA3A46059BFCF717FA04460D46099835
:10403000022101EAA070C0F10100FCF711FB0CB0F5
:1040400022462B46BDE8F04DFCF709BA1498401CF7
:10405000384320430BD01498012812D00CB02246CC
:104060002B46BDE8F04D00203449FCF76ABA0CB08D
:1040700025F000432246BDE8F04D00203049FCF712
:1040800060BA20462946FFF7FCFB042808BF00F071
:1040900063F820460CB02946BDE8F08D012802BF28
:1040A00040460CB0BDE8F08D00270B463A4620464E
:1040B0002946FCF7D1F952465B46FCF7CDF9044698
:1040C0000D464246334600201C49FCF73AFA834627
:1040D0003A46884633461046FCF7C1F90022184B91
:1040E000FCF716F906468A4622462B4638464146D4
:1040F000FCF7B5F932465346FCF70AF95A464346EF
:10410000FCF7ADF90CB03A464346BDE8F04DFCF77C
:10411000FFB800000000303E2894E53F182D4454BD
:10412000FB21E93F075C143326A6813CE809000027
:104130000A0A0000635555555555D53F0000F0BF9C
:104140000000F03F0122FCF76BBA00221346104634
:104150001146FCF7F6B90000024A00201107FCF7EF
:104160005FBA000001FDFFFF02E008C8121F08C18E
:10417000002AFAD170477047002001E001C1121FE8
:10418000002AFBD170470000014908607047000019
:10419000A40000202DE9F84F04460D4621F0004010
:1041A00000917349814211DC7249884201DC06D1D9
:1041B0002CB120462946BDE8F84FFFF7C3BF6E4833
:1041C000002DCCBF6D496E49BDE8F88F6D49814225
:1041D00011DD6D498142D8BF4FF0FF366DDD2046BD
:1041E0002946FFF74EFB042808BFFFF7B5FF20461E
:1041F0002946BDE8F88F6549654F25F000458142A5
:1042000033DD6449814219DD002632464FF0804398
:1042100020462946FCF77CF880468A460122204643
:104220002946FCF7FDF900223B46FCF712F942460D
:104230005346FCF786F904460D463EE0012600226F
:10424000BA463B4620462946FCF762F880460F46B0
:104250000022534620462946FCF7FBF842463B46DF
:10426000FCF76FF904460D4627E04B4981421BDD00
:10427000DFF828A102260022534620462946FCF7F3
:10428000EEF800223B46FCF743F880460F4600223A
:10429000534620462946FCF7DCF842463B46FCF7ED
:1042A00050F904460D4608E0032622462B4600201E
:1042B0003B49FCF746F904460D4622462B4610467C
:1042C0001946FCF7CCF88B46824602460B46FCF7B3
:1042D000C6F807460246334888460B46062178440E
:1042E000FFF726FD52465B46FCF7B9F882462E489A
:1042F0008B463A46434605217844FFF719FD3A4676
:104300004346FCF7ACF802460B46002E5046594691
:104310000CDAFBF7FDFF22462B46FCF7A0F801B0B4
:1043200022462B46BDE8F04FFCF796B8FBF7F0FFAE
:1043300022462B46FCF793F81C4A7A4402EBC6034C
:10434000D3E90023FCF785F822462B46FCF781F8D9
:10435000174A7A4402EBC603D3E90023FCF77CF842
:10436000009A002AB8BF81F00041BDE8F88F000034
:10437000000010440000F07F182D4454FB21F93F49
:10438000FB21F9BF0000DC3F0000203E0000F33FAE
:104390000000F03F0000E63F008003400000F83FCF
:1043A0000000F0BF0E050000CC0400006A0400000D
:1043B0003204000000B5244B21F0004287B09A423D
:1043C000DCBF0022134629DD204B9A4208D140B9B8
:1043D0004FF00100FFF7D8FEFFF7B7FE07B000BDB2
:1043E00003DBFFF7AFFE07B000BD02AAFFF75EFADE
:1043F00010F0030104BF0DF1080C9CE80F000DD074
:10440000012001290ED0022914D00DF1080C0090D2
:104410009CE80F00FFF7E2FC07B000BDFFF70AFCC5
:1044200007B000BD0DF1080C00909CE80F00FFF7ED
:10443000D5FC05E00DF1080C9CE80F00FFF7FAFB36
:1044400007B081F0004100BDFB21E93F0000F07F93
:1044500008B5FDF79FFBFEF7A9FFFEF79DFC384866
:10446000416941F0010141614069002200F0010011
:10447000009011460C20FDF7E9FB0C20FDF7DAFB5C
:10448000314830490C2201604FF4E1314160002194
:104490008160C160C0E904128161C161FEF7B5FBB2
:1044A000FEF70CFDFEF75EFDFEF7F0FCFEF730FDBB
:1044B000254804214038FEF741FB234808214038B5
:1044C000FEF73CFB214801687038816500F17C01F2
:1044D0000968C1651C488038FEF748F91A48C03899
:1044E000FEF744F91949082210391948FDF76AFF07
:1044F0000122184C550329462046FDF737FB294673
:10450000154D01222846FDF731FB01229603314665
:104510002846FDF72BFB012231462046FDF726FBFE
:10452000002261152846FDF721FB002202210B48DD
:10453000FDF71CFB002271002046FDF717FBFEE78C
:104540000010024000440040C00100207000002024
:10455000A800002000100140000C014000080140AC
:104560002DE9F04114461D4606460F46FCF7ECF8CF
:1045700003D230463946BDE8F08120462946FAE7A5
:104580002DE9F05F9046DDE90E67DDE90AAB99465B
:1045900004460D46FCF7C0F803D200200146BDE8F2
:1045A000F09F52465B4620462946FCF7B5F810D2EC
:1045B00042464B4650465946FBF74BFF06460F46D0
:1045C00042464B4620462946FBF743FF32463B46D0
:1045D00020E0DDE90C2320462946FCF79DF802D2B5
:1045E00000200E49DBE732463B4620462946FCF7D1
:1045F00093F8D2D2DDE90C2330463946FBF729FF88
:104600008046894632463B4620462946FBF724FF32
:1046100042464B46BDE8F05FFBF793BF0000F03F1A
:1046200000B5254B21F0004287B09A4203DC0022FE
:10463000134600922BE0214B9A4208D140B94FF02B
:104640000100FFF7A1FDFFF780FD07B000BD03DB10
:10465000FFF778FD07B000BD02AAFFF727F910F0B9
:1046600003014FF001000DD0012914D002291AD006
:104670000DF1080C9CE80F00FFF7DCFA07B081F0A1
:10468000004100BD0DF1080C00909CE80F00FFF701
:10469000A5FB07B000BD0DF1080C9CE80F00FFF76B
:1046A000C9FA07B000BD0DF1080C00909CE80F009E
:1046B000FFF794FBE2E70000FB21E93F0000F07FF9
:1046C0002DE9F04106460F46FCF73BF9041E0D4666
:1046D00018BF0120284320F00040C0F17F6000F1A6
:1046E000E040C00F0ED0301C18BF0120384320F02E
:1046F0000040C0F17F6000F1E040C00F04BF012026
:10470000FFF742FD20462946BDE8F08110B5164B63
:1047100021F00042012486B09A4203DC00221346B5
:1047200000941CE0114B9A4208D140B94FF00100AF
:10473000FFF72AFDFFF709FD06B010BD03DBFFF709
:1047400001FD06B010BD02AAFFF7B0F800F00100AD
:10475000A4EB40000DF1080C00909CE80F00FFF75F
:10476000B3FB06B010BD0000FB21E93F0000F07F65
:104770000000000000000000010203040607080911
:1047800000000000010203044FBB610567ACDD3F80
:10479000182D4454FB21E93F9BF681D20B73EF3F68
:1047A000182D4454FB21F93FE2652F227F2B7A3CE0
:1047B000075C143326A6813CBDCBF07A8807703C99
:1047C000075C143326A6913CC4EB98999999C9BF0C
:1047D000711623FEC671BCBF6D9A74AFF2B0B3BF41
:1047E0009AFDDE522DDEADBF2F6C6A2C44B4A2BF01
:1047F0000D5555555555D53FFF8300922449C23F6D
:104800006E204CC5CD45B73F513DD0A0660DB13FA0
:10481000EB0D76244B7BA93F11DA22E33AAD903FB2
:104820004C5555555555A53F7751C1166CC156BFCE
:104830009015CB19A001FA3EAD529C804F7E92BEDE
:10484000C4B1B4BD9EEE213ED43888BEE9FAA8BDFD
:1048500000004054FB21F93F3163621A61B4D03D3E
:104860000000601A61B4D03D7370032E8A19A33B17
:104870000000002E8A19A33BC14920259A837B3969
:1048800000000000000000006E83F9A22915444ECC
:10489000D15727FCC0DD34F5999562DB4190433C4C
:1048A000AB6351FE61C5BBDE3A6E24B7E0D24D4228
:1048B000EA2E49061C92D1091CEB1DFE3EA729B128
:1048C000F53582E88444BB2E26709CE9417E5FB4B6
:1048D00039D69139F43953838B5F849C3B28F9BDD9
:1048E000FF97F81F0F9805DE8B112FEF1F6D0A5AE7
:1048F000CF7E366DB709CB27663F464F2DEA5F9EC8
:10490000C7BA27757BF1E5EBF739073DEA92528A82
:10491000B15FFB6B085D8D1FA6F810111111813F6F
:10492000D561C119A0012ABF7DFEB157E31DC73E65
:10493000EB9C2B8AE6E55ABE7CD5CF5A3AD9E53DA9
:104940007AFE10111111C13F37D60684F464963FE8
:10495000280356C9226D6D3F0165F2F2D844433FEA
:10496000A69237A0887E143F735360DBCB75F3BEED
:10497000FE41B31BBAA1AB3F93846EE9E326823FAD
:104980001583E0FEC8DB573F68108D1AF726303FCD
:10499000E9A7F0320FB8123FD47ABF74702AFB3EF9
:1049A000C049000800000020A8000000684100087D
:1049B000684A0008A8000020A80500007841000807
:1049C00000008F0100000000000000000000000057
:1049D00000000000000060400000003F000048426E
:1049E00000000000000000000000000000000000C7
:1049F0000000000000000000CDCCCC3D9A99193F8A
:104A00009A99993E0000000000000000000000009C
:104A10000000000000000000000000000000000096
:104A20000000000000000000000000000000000086
:104A30000000A0410000A0410000000000000000B4
:104A400000008040000080400000000000000000E6
:104A50000000000001000000100000000000000045
:084A600000A24A04000000005E
:04000005080000ED02
:00000001FF
